undefinedA100000000001040617938344014800027969&OF1.31&                                                  
B1100000000020406179381              הוצאות לייצור בירה                                1              עלות המכר                                                                                                                                                                      +00000000000000+00000000000000+000000000000000000000000000       +00000000000000ILS                
B110000000003040617938799            מעמ תשומות                                        0                                                                                                                                                                                             +00000000000000+00000000000000+000000000000000000000000000       +00000000000000ILS                
B1100000000040406179382015           פרסום                                             1              עלות המכר                                                                                                                                                                      +00000000000000+00000000000000+000000000000000000000000000       +00000000000000ILS                
B1100000000050406179382016           קניות                                             1              עלות המכר                                                                                                                                                                      +00000000000000+00000000000000+000000000000000000000000000       +00000000000000ILS                
B1100000000060406179382026           משרדיות                                           4              הוצאות הנהלה וכלליות                                                                                                                                                           +00000000000000+00000000000000+000000000000000000000000000       +00000000000000ILS                
B1100000000070406179382027           דלק                                               4              הוצאות הנהלה וכלליות                                                                                                                                                           +00000000000000+00000000000000+000000000000000000000000000       +00000000000000ILS                
B1100000000080406179382005           הוצאות רכב                                        4              הוצאות הנהלה וכלליות                                                                                                                                                           +00000000000000+00000000000000+000000000000000000000000000       +00000000000000ILS                
B1100000000090406179382025           עמלות כרטיס אשראי                                 4              הוצאות הנהלה וכלליות                                                                                                                                                           +00000000000000+00000000000000+000000000000000000000000000       +00000000000000ILS                
B1100000000100406179382022           אחזקה                                             4              הוצאות הנהלה וכלליות                                                                                                                                                           +00000000000000+00000000000000+000000000000000000000000000       +00000000000000ILS                
B110000000011040617938C143146        לקוחות שונים                                      1000           לקוחות                                                                                                                                                          0              +00000000000000+00000000000000+000000000000001000000000000       +00000000000000ILS                
B1100000000120406179382021           מכירות                                            6              הכנסות                                                                                                                                                                         +00000000000000+00000000000000+000000000000000000000000000       +00000000000000ILS                
B110000000013040617938007            מעמ עסקאות                                        0                                                                                                                                                                                             +00000000000000+00000000000000+000000000000000000000000000       +00000000000000ILS                
B10000000001404061793804010000040000100000000               6224                000                    000ספקים שונים הוצאות לייצור בירה                    20240104202401041                             1ILS+00000000398000+00000000000000+00000000000                           00010101                                  
B10000000001504061793804010000040000200000000               6224                000                    000ספקים שונים הוצאות לייצור בירה                    2024010420240104799            0              1ILS+00000000067660+00000000000000+00000000000                           00010101                                  
B10000000001604061793804020000110000100000000               50648               000                    000ספקים שונים הוצאות לייצור בירה                    20240229202402291                             1ILS+00000000018216+00000000000000+00000000000                           00010101                                  
B10000000001704061793804020000110000200000000               50648               000                    000ספקים שונים הוצאות לייצור בירה                    2024022920240229799            0              1ILS+00000000003097+00000000000000+00000000000                           00010101                                  
B10000000001804061793804020000120000100000000               50641               000                    000הוצאות לייצור בירה                                20240225202402251                             1ILS+00000000024288+00000000000000+00000000000                           00010101                                  
B10000000001904061793804020000120000200000000               50641               000                    000הוצאות לייצור בירה                                2024022520240225799            0              1ILS+00000000004129+00000000000000+00000000000                           00010101                                  
B10000000002004061793804020000100000100000000               7                   000                    000ספקים שונים פרסום                                 20240223202402232015                          1ILS+00000000151000+00000000000000+00000000000                           00010101                                  
B10000000002104061793804020000090000100000000               3692                000                    000ספקים שונים הוצאות לייצור בירה                    20240225202402251                             1ILS+00000000805983+00000000000000+00000000000                           00010101                                  
B10000000002204061793804020000090000200000000               3692                000                    000ספקים שונים הוצאות לייצור בירה                    2024022520240225799            0              1ILS+00000000137017+00000000000000+00000000000                           00010101                                  
B10000000002304061793804020000080000100000000               50447               000                    000ספקים שונים פרסום                                 20240220202402202015                          1ILS+00000000200000+00000000000000+00000000000                           00010101                                  
B10000000002404061793804020000080000200000000               50447               000                    000ספקים שונים פרסום                                 2024022020240220799            0              1ILS+00000000034000+00000000000000+00000000000                           00010101                                  
B10000000002504061793804020000060000100000000               245000763           000                    000ספקים שונים הוצאות לייצור בירה                    20240216202402161                             1ILS+00000000105043+00000000000000+00000000000                           00010101                                  
B10000000002604061793804020000060000200000000               245000763           000                    000ספקים שונים הוצאות לייצור בירה                    2024021620240216799            0              1ILS+00000000017857+00000000000000+00000000000                           00010101                                  
B10000000002704061793804020000070000100000000               6383                000                    000ספקים שונים הוצאות לייצור בירה                    20240215202402151                             1ILS+00000000486718+00000000000000+00000000000                           00010101                                  
B10000000002804061793804020000070000200000000               6383                000                    000ספקים שונים הוצאות לייצור בירה                    2024021520240215799            0              1ILS+00000000082742+00000000000000+00000000000                           00010101                                  
B10000000002904061793804020000050000100000000               6382                000                    000ספקים שונים הוצאות לייצור בירה                    20240214202402141                             1ILS+00000000973444+00000000000000+00000000000                           00010101                                  
B10000000003004061793804020000050000200000000               6382                000                    000ספקים שונים הוצאות לייצור בירה                    2024021420240214799            0              1ILS+00000000165486+00000000000000+00000000000                           00010101                                  
B10000000003104061793804010000080000100000000               43062               000                    000ספקים שונים הוצאות לייצור בירה                    20240125202401251                             1ILS+00000000439231+00000000000000+00000000000                           00010101                                  
B10000000003204061793804010000080000200000000               43062               000                    000ספקים שונים הוצאות לייצור בירה                    2024012520240125799            0              1ILS+00000000074669+00000000000000+00000000000                           00010101                                  
B10000000003304061793804010000070000100000000               5                   000                    000ספקים שונים פרסום                                 20240119202401192015                          1ILS+00000000125000+00000000000000+00000000000                           00010101                                  
B10000000003404061793804010000060000100000000               2222                000                    000ספקים שונים הוצאות לייצור בירה                    20240117202401171                             1ILS+00000000024000+00000000000000+00000000000                           00010101                                  
B10000000003504061793804010000060000200000000               2222                000                    000ספקים שונים הוצאות לייצור בירה                    2024011720240117799            0              1ILS+00000000004080+00000000000000+00000000000                           00010101                                  
B10000000003604061793804010000050000100000000               6261                000                    000ספקים שונים הוצאות לייצור בירה                    20240116202401161                             1ILS+00000000993444+00000000000000+00000000000                           00010101                                  
B10000000003704061793804010000050000200000000               6261                000                    000ספקים שונים הוצאות לייצור בירה                    2024011620240116799            0              1ILS+00000000168886+00000000000000+00000000000                           00010101                                  
B10000000003804061793804040000030000100000000               6679                000                    000מבשלת הגיבור בע"מ הוצאות לייצור בירה              20240418202404181                             1ILS+00000001200573+00000000000000+00000000000                           00010101                                  
B10000000003904061793804040000030000200000000               6679                000                    000מבשלת הגיבור בע"מ הוצאות לייצור בירה              2024041820240418799            0              1ILS+00000000204097+00000000000000+00000000000                           00010101                                  
B10000000004004061793804040000040000100000000               43233               000                    000גרין גלאס הוצאות לייצור בירה                      20240410202404101                             1ILS+00000000381880+00000000000000+00000000000                           00010101                                  
B10000000004104061793804040000040000200000000               43233               000                    000גרין גלאס הוצאות לייצור בירה                      2024041020240410799            0              1ILS+00000000064920+00000000000000+00000000000                           00010101                                  
B10000000004204061793804040000020000100000000               6605                000                    000מבשלת הגיבור בע"מ הוצאות לייצור בירה              20240402202404021                             1ILS+00000001216803+00000000000000+00000000000                           00010101                                  
B10000000004304061793804040000020000200000000               6605                000                    000מבשלת הגיבור בע"מ הוצאות לייצור בירה              2024040220240402799            0              1ILS+00000000206857+00000000000000+00000000000                           00010101                                  
B10000000004404061793804030000060000100000000               18092               000                    000פרסום                                             20240326202403262015                          1ILS+00000000188034+00000000000000+00000000000                           00010101                                  
B10000000004504061793804030000060000200000000               18092               000                    000פרסום                                             2024032620240326799            0              1ILS+00000000031966+00000000000000+00000000000                           00010101                                  
B10000000004604061793804040000010000100000000               462579              000                    000קניות                                             20240430202404302016                          1ILS+00000000018162+00000000000000+00000000000                           00010101                                  
B10000000004704061793804040000010000200000000               462579              000                    000קניות                                             2024043020240430799            0              1ILS+00000000003088+00000000000000+00000000000                           00010101                                  
B10000000004804061793804030000050000100000000               221454              000                    000דפוס מאיר (כנרת) בע"מ הוצאות לייצור בירה          20240229202402291                             1ILS+00000000556154+00000000000000+00000000000                           00010101                                  
B10000000004904061793804030000050000200000000               221454              000                    000דפוס מאיר (כנרת) בע"מ הוצאות לייצור בירה          2024022920240229799            0              1ILS+00000000094546+00000000000000+00000000000                           00010101                                  
B10000000005004061793804030000040000100000000               2670                000                    000וויטק  בע"מ משרדיות                               20240301202403012026                          1ILS+00000000028000+00000000000000+00000000000                           00010101                                  
B10000000005104061793804030000040000200000000               2670                000                    000וויטק  בע"מ משרדיות                               2024030120240301799            0              1ILS+00000000004760+00000000000000+00000000000                           00010101                                  
B10000000005204061793804020000150000100000000               4047                000                    000דלק                                               20240215202402152027                          1ILS+00000000041110+00000000000000+00000000000                           00010101                                  
B10000000005304061793804020000150000200000000               4047                000                    000דלק                                               2024021520240215799            0              1ILS+00000000004409+00000000000000+00000000000                           00010101                                  
B10000000005404061793804020000140000100000000               63599               000                    000דלק                                               20240201202402012027                          1ILS+00000000034193+00000000000000+00000000000                           00010101                                  
B10000000005504061793804020000140000200000000               63599               000                    000דלק                                               2024020120240201799            0              1ILS+00000000003668+00000000000000+00000000000                           00010101                                  
B10000000005604061793804010000100000100000000               7268                000                    000דלק                                               20240126202401262027                          1ILS+00000000036208+00000000000000+00000000000                           00010101                                  
B10000000005704061793804010000100000200000000               7268                000                    000דלק                                               2024012620240126799            0              1ILS+00000000003884+00000000000000+00000000000                           00010101                                  
B10000000005804061793804010000110000100000000               92820               000                    000דלק                                               20240129202401292027                          1ILS+00000000029409+00000000000000+00000000000                           00010101                                  
B10000000005904061793804010000110000200000000               92820               000                    000דלק                                               2024012920240129799            0              1ILS+00000000003154+00000000000000+00000000000                           00010101                                  
B10000000006004061793804010000120000100000000               46406               000                    000דלק                                               20240112202401122027                          1ILS+00000000028172+00000000000000+00000000000                           00010101                                  
B10000000006104061793804010000120000200000000               46406               000                    000דלק                                               2024011220240112799            0              1ILS+00000000003022+00000000000000+00000000000                           00010101                                  
B10000000006204061793804020000130000100000000               9868                000                    000ספקים שונים משרדיות                               20240213202402132026                          1ILS+00000000006274+00000000000000+00000000000                           00010101                                  
B10000000006304061793804020000130000200000000               9868                000                    000ספקים שונים משרדיות                               2024021320240213799            0              1ILS+00000000001066+00000000000000+00000000000                           00010101                                  
B10000000006404061793804010000090000100000000               4333                000                    000משרדיות                                           20240117202401172026                          1ILS+00000000005795+00000000000000+00000000000                           00010101                                  
B10000000006504061793804010000090000200000000               4333                000                    000משרדיות                                           2024011720240117799            0              1ILS+00000000000985+00000000000000+00000000000                           00010101                                  
B10000000006604061793804030000010000100000000               1236614             000                    000ספקים שונים הוצאות רכב                            20240303202403032005                          1ILS+00000000234814+00000000000000+00000000000                           00010101                                  
B10000000006704061793804030000010000200000000               1236614             000                    000ספקים שונים הוצאות רכב                            2024030320240303799            0              1ILS+00000000025186+00000000000000+00000000000                           00010101                                  
B10000000006804061793804040000050000100000000               2092603             000                    000הייפ פתרונות תשלום   בע"מ עמלות כרטיס אשראי       20240404202404042025                          1ILS+00000000007916+00000000000000+00000000000                           00010101                                  
B10000000006904061793804040000050000200000000               2092603             000                    000הייפ פתרונות תשלום   בע"מ עמלות כרטיס אשראי       2024040420240404799            0              1ILS+00000000001346+00000000000000+00000000000                           00010101                                  
B10000000007004061793804050000010000100000000               2881                000                    000וויטק  בע"מ משרדיות                               20240501202405012026                          1ILS+00000000035000+00000000000000+00000000000                           00010101                                  
B10000000007104061793804050000010000200000000               2881                000                    000וויטק  בע"מ משרדיות                               2024050120240501799            0              1ILS+00000000005950+00000000000000+00000000000                           00010101                                  
B10000000007204061793804030000070000100000000               246000986           000                    000הדסטארט אחזקה                                     20240331202403312022                          1ILS+00000000001282+00000000000000+00000000000                           00010101                                  
B10000000007304061793804030000070000200000000               246000986           000                    000הדסטארט אחזקה                                     2024033120240331799            0              1ILS+00000000000218+00000000000000+00000000000                           00010101                                  
B10000000007504061793804040000060000200000000               501604300           000                    000מכירות                                            20240430202404302021                          2ILS+00000002166818+00000000000000+00000000000                           00010101                                  
B10000000007604061793804040000060000300000000               501604300           000                    000מכירות                                            2024043020240430007            0              2ILS+00000000368359+00000000000000+00000000000                           00010101                                  
B10000000007404061793804040000060000100000000               501604300           000                    000מכירות                                            2024043020240430C143146                       1ILS+00000002535177+00000000000000+00000000000                           00010101                                  
B10000000007804061793804020000040000200000000               337                 000                    000לקוחות שונים מכירות                               20240211202402112021                          2ILS+00000000020342+00000000000000+00000000000                           00010101                                  
B10000000007904061793804020000040000300000000               337                 000                    000לקוחות שונים מכירות                               2024021120240211007            0              2ILS+00000000003458+00000000000000+00000000000                           00010101                                  
B10000000007704061793804020000040000100000000               337                 000                    000לקוחות שונים מכירות                               2024021120240211C143146                       1ILS+00000000023800+00000000000000+00000000000                           00010101                                  
B10000000008104061793804020000160000200000000               336                 000                    000לקוחות שונים מכירות                               20240205202402052021                          2ILS+00000000037436+00000000000000+00000000000                           00010101                                  
B10000000008204061793804020000160000300000000               336                 000                    000לקוחות שונים מכירות                               2024020520240205007            0              2ILS+00000000006364+00000000000000+00000000000                           00010101                                  
B10000000008004061793804020000160000100000000               336                 000                    000לקוחות שונים מכירות                               2024020520240205C143146                       1ILS+00000000043800+00000000000000+00000000000                           00010101                                  
B10000000008404061793804020000030000200000000               335                 000                    000לקוחות שונים מכירות                               20240204202402042021                          2ILS+00000000187350+00000000000000+00000000000                           00010101                                  
B10000000008504061793804020000030000300000000               335                 000                    000לקוחות שונים מכירות                               2024020420240204007            0              2ILS+00000000031850+00000000000000+00000000000                           00010101                                  
B10000000008304061793804020000030000100000000               335                 000                    000לקוחות שונים מכירות                               2024020420240204C143146                       1ILS+00000000219200+00000000000000+00000000000                           00010101                                  
B10000000008704061793804020000020000200000000               334                 000                    000לקוחות שונים מכירות                               20240204202402042021                          2ILS+00000000025128+00000000000000+00000000000                           00010101                                  
B10000000008804061793804020000020000300000000               334                 000                    000לקוחות שונים מכירות                               2024020420240204007            0              2ILS+00000000004272+00000000000000+00000000000                           00010101                                  
B10000000008604061793804020000020000100000000               334                 000                    000לקוחות שונים מכירות                               2024020420240204C143146                       1ILS+00000000029400+00000000000000+00000000000                           00010101                                  
B10000000009004061793804020000010000200000000               333                 000                    000לקוחות שונים מכירות                               20240202202402022021                          2ILS+00000000047949+00000000000000+00000000000                           00010101                                  
B10000000009104061793804020000010000300000000               333                 000                    000לקוחות שונים מכירות                               2024020220240202007            0              2ILS+00000000008151+00000000000000+00000000000                           00010101                                  
B10000000008904061793804020000010000100000000               333                 000                    000לקוחות שונים מכירות                               2024020220240202C143146                       1ILS+00000000056100+00000000000000+00000000000                           00010101                                  
B10000000009304061793804010000030000200000000               331                 000                    000לקוחות שונים מכירות                               20240125202401252021                          2ILS+00000000100000+00000000000000+00000000000                           00010101                                  
B10000000009404061793804010000030000300000000               331                 000                    000לקוחות שונים מכירות                               2024012520240125007            0              2ILS+00000000017000+00000000000000+00000000000                           00010101                                  
B10000000009204061793804010000030000100000000               331                 000                    000לקוחות שונים מכירות                               2024012520240125C143146                       1ILS+00000000117000+00000000000000+00000000000                           00010101                                  
B10000000009604061793804010000020000200000000               327                 000                    000לקוחות שונים מכירות                               20240106202401062021                          2ILS+00000000061538+00000000000000+00000000000                           00010101                                  
B10000000009704061793804010000020000300000000               327                 000                    000לקוחות שונים מכירות                               2024010620240106007            0              2ILS+00000000010462+00000000000000+00000000000                           00010101                                  
B10000000009504061793804010000020000100000000               327                 000                    000לקוחות שונים מכירות                               2024010620240106C143146                       1ILS+00000000072000+00000000000000+00000000000                           00010101                                  
B10000000009904061793804010000010000200000000               328                 000                    000לקוחות שונים מכירות                               20240110202401102021                          2ILS+00000000081538+00000000000000+00000000000                           00010101                                  
B10000000010004061793804010000010000300000000               328                 000                    000לקוחות שונים מכירות                               2024011020240110007            0              2ILS+00000000013862+00000000000000+00000000000                           00010101                                  
B10000000009804061793804010000010000100000000               328                 000                    000לקוחות שונים מכירות                               2024011020240110C143146                       1ILS+00000000095400+00000000000000+00000000000                           00010101                                  
B10000000010204061793804020000250000200000000               2/1000              000                    000גילת רשתות לווין בע"מ מכירות                      20240214202402142021                          2ILS+00000000130000+00000000000000+00000000000                           00010101                                  
B10000000010304061793804020000250000300000000               2/1000              000                    000גילת רשתות לווין בע"מ מכירות                      2024021420240214007            0              2ILS+00000000022100+00000000000000+00000000000                           00010101                                  
B10000000010104061793804020000250000100000000               2/1000              000                    000גילת רשתות לווין בע"מ מכירות                      2024021420240214C143146                       1ILS+00000000152100+00000000000000+00000000000                           00010101                                  
B10000000010504061793804020000230000200000000               2/1001              000                    000לקוחות שונים מכירות                               20240217202402172021                          2ILS+00000000141453+00000000000000+00000000000                           00010101                                  
B10000000010604061793804020000230000300000000               2/1001              000                    000לקוחות שונים מכירות                               2024021720240217007            0              2ILS+00000000024047+00000000000000+00000000000                           00010101                                  
B10000000010404061793804020000230000100000000               2/1001              000                    000לקוחות שונים מכירות                               2024021720240217C143146                       1ILS+00000000165500+00000000000000+00000000000                           00010101                                  
B10000000010804061793804020000240000200000000               2/1003              000                    000קיבוץ עמיעד מכירות                                20240219202402192021                          2ILS+00000000040800+00000000000000+00000000000                           00010101                                  
B10000000010904061793804020000240000300000000               2/1003              000                    000קיבוץ עמיעד מכירות                                2024021920240219007            0              2ILS+00000000006936+00000000000000+00000000000                           00010101                                  
B10000000010704061793804020000240000100000000               2/1003              000                    000קיבוץ עמיעד מכירות                                2024021920240219C143146                       1ILS+00000000047736+00000000000000+00000000000                           00010101                                  
B10000000011104061793804020000210000200000000               2/1004              000                    000לקוחות שונים מכירות                               20240222202402222021                          2ILS+00000000150000+00000000000000+00000000000                           00010101                                  
B10000000011204061793804020000210000300000000               2/1004              000                    000לקוחות שונים מכירות                               2024022220240222007            0              2ILS+00000000025500+00000000000000+00000000000                           00010101                                  
B10000000011004061793804020000210000100000000               2/1004              000                    000לקוחות שונים מכירות                               2024022220240222C143146                       1ILS+00000000175500+00000000000000+00000000000                           00010101                                  
B10000000011404061793804020000220000200000000               2/1007              000                    000לקוחות שונים מכירות                               20240227202402272021                          2ILS+00000000108974+00000000000000+00000000000                           00010101                                  
B10000000011504061793804020000220000300000000               2/1007              000                    000לקוחות שונים מכירות                               2024022720240227007            0              2ILS+00000000018526+00000000000000+00000000000                           00010101                                  
B10000000011304061793804020000220000100000000               2/1007              000                    000לקוחות שונים מכירות                               2024022720240227C143146                       1ILS+00000000127500+00000000000000+00000000000                           00010101                                  
B10000000011704061793804020000200000200000000               1006                000                    000רפאל מערכות לחימה מתקדמות בע"מ מכירות             20240227202402272021                          2ILS+00000002220000+00000000000000+00000000000                           00010101                                  
B10000000011804061793804020000200000300000000               1006                000                    000רפאל מערכות לחימה מתקדמות בע"מ מכירות             2024022720240227007            0              2ILS+00000000377400+00000000000000+00000000000                           00010101                                  
B10000000011604061793804020000200000100000000               1006                000                    000רפאל מערכות לחימה מתקדמות בע"מ מכירות             2024022720240227C143146                       1ILS+00000002597400+00000000000000+00000000000                           00010101                                  
B10000000012004061793804020000180000200000000               1000                000                    000לקוחות שונים מכירות                               20240227202402272021                          2ILS+00000000500000+00000000000000+00000000000                           00010101                                  
B10000000012104061793804020000180000300000000               1000                000                    000לקוחות שונים מכירות                               2024022720240227007            0              2ILS+00000000085000+00000000000000+00000000000                           00010101                                  
B10000000011904061793804020000180000100000000               1000                000                    000לקוחות שונים מכירות                               2024022720240227C143146                       1ILS+00000000585000+00000000000000+00000000000                           00010101                                  
B10000000012304061793804020000190000200000000               1001                000                    000לקוחות שונים מכירות                               20240227202402272021                          2ILS+00000000150000+00000000000000+00000000000                           00010101                                  
B10000000012404061793804020000190000300000000               1001                000                    000לקוחות שונים מכירות                               2024022720240227007            0              2ILS+00000000025500+00000000000000+00000000000                           00010101                                  
B10000000012204061793804020000190000100000000               1001                000                    000לקוחות שונים מכירות                               2024022720240227C143146                       1ILS+00000000175500+00000000000000+00000000000                           00010101                                  
B10000000012604061793804030000030000200000000               1003                000                    000מוריה שרותי נקיון אחזקה ושמירה בע"מ מכירות        20240303202403032021                          2ILS+00000000061538+00000000000000+00000000000                           00010101                                  
B10000000012704061793804030000030000300000000               1003                000                    000מוריה שרותי נקיון אחזקה ושמירה בע"מ מכירות        2024030320240303007            0              2ILS+00000000010462+00000000000000+00000000000                           00010101                                  
B10000000012504061793804030000030000100000000               1003                000                    000מוריה שרותי נקיון אחזקה ושמירה בע"מ מכירות        2024030320240303C143146                       1ILS+00000000072000+00000000000000+00000000000                           00010101                                  
B10000000012904061793804020000170000200000000               1002                000                    000לקוחות שונים מכירות                               20240229202402292021                          2ILS+00000001456838+00000000000000+00000000000                           00010101                                  
B10000000013004061793804020000170000300000000               1002                000                    000לקוחות שונים מכירות                               2024022920240229007            0              2ILS+00000000247662+00000000000000+00000000000                           00010101                                  
B10000000012804061793804020000170000100000000               1002                000                    000לקוחות שונים מכירות                               2024022920240229C143146                       1ILS+00000001704500+00000000000000+00000000000                           00010101                                  
B10000000013204061793804030000020000200000000               1008                000                    000לקוחות שונים מכירות                               20240302202403022021                          2ILS+00000000073872+00000000000000+00000000000                           00010101                                  
B10000000013304061793804030000020000300000000               1008                000                    000לקוחות שונים מכירות                               2024030220240302007            0              2ILS+00000000012558+00000000000000+00000000000                           00010101                                  
B10000000013104061793804030000020000100000000               1008                000                    000לקוחות שונים מכירות                               2024030220240302C143146                       1ILS+00000000086430+00000000000000+00000000000                           00010101                                  
Z900000000134040617938344014800027969&OF1.31&000000000000134                                                  
