undefinedA100000000001021962717194355747050120&OF1.31&                                                  
B1100000000020219627172004           קניות פטורות                                      1              עלות המכר                                                                                                                                                                      +00000000000000+00000000000000+000000000000000000000000000       +00000000000000ILS                
B1100000000030219627172005           קניות                                             1              עלות המכר                                                                                                                                                                      +00000000000000+00000000000000+000000000000000000000000000       +00000000000000ILS                
B110000000004021962717799            מעמ תשומות                                        0                                                                                                                                                                                             +00000000000000+00000000000000+000000000000000000000000000       +00000000000000ILS                
B1100000000050219627171              אריזה וכלים                                       1              עלות המכר                                                                                                                                                                      +00000000000000+00000000000000+000000000000000000000000000       +00000000000000ILS                
B1100000000060219627172032           הנהלת חשבונות                                     4              הוצאות הנהלה וכלליות                                                                                                                                                           +00000000000000+00000000000000+000000000000000000000000000       +00000000000000ILS                
B1100000000070219627172020           אחזקה                                             4              הוצאות הנהלה וכלליות                                                                                                                                                           +00000000000000+00000000000000+000000000000000000000000000       +00000000000000ILS                
B1100000000080219627172028           רכוש קבוע                                         5              רכוש קבוע - לא משתתף בדוח רווח                                                                                                                                                 +00000000000000+00000000000000+000000000000000000000000000       +00000000000000ILS                
B110000000009021962717C146260        לקוחות שונים                                      1000           לקוחות                                                                                                                                                          0              +00000000000000+00000000000000+000000000000001000000000000       +00000000000000ILS                
B1100000000100219627172002           מכירות                                            6              הכנסות                                                                                                                                                                         +00000000000000+00000000000000+000000000000000000000000000       +00000000000000ILS                
B110000000011021962717007            מעמ עסקאות                                        0                                                                                                                                                                                             +00000000000000+00000000000000+000000000000000000000000000       +00000000000000ILS                
B10000000001202196271703010000150000100000000               3800007890          000                    000רשת חנויות רמי לוי שיווק השיקמה 2006 בע"מ קניות פט20230118202301182004                          1ILS+00000000013000+00000000000000+00000000000                           00010101                                  
B10000000001302196271703020000160000100000000               651.5               000                    000ספקים שונים קניות                                 20230228202302282005                          1ILS+00000000230769+00000000000000+00000000000                           00010101                                  
B10000000001402196271703020000160000200000000               651.5               000                    000ספקים שונים קניות                                 2023022820230228799            0              1ILS+00000000039231+00000000000000+00000000000                           00010101                                  
B10000000001502196271703020000150000100000000               98140               000                    000כלבו קניות                                        20230228202302282005                          1ILS+00000000004957+00000000000000+00000000000                           00010101                                  
B10000000001602196271703020000150000200000000               98140               000                    000כלבו קניות                                        2023022820230228799            0              1ILS+00000000000843+00000000000000+00000000000                           00010101                                  
B10000000001702196271703020000140000100000000               3800007973          000                    000ספקים שונים קניות פטורות                          20230202202302022004                          1ILS+00000000010900+00000000000000+00000000000                           00010101                                  
B10000000001802196271703010000140000100000000               3800007948          000                    000רשת חנויות רמי לוי שיווק השיקמה 2006 בע"מ קניות פט20230126202301262004                          1ILS+00000000009200+00000000000000+00000000000                           00010101                                  
B10000000001902196271703010000120000100000000               1046027             000                    000נט-פארם שיווק בע"מ אריזה וכלים                    20230111202301111                             1ILS+00000000007863+00000000000000+00000000000                           00010101                                  
B10000000002002196271703010000120000200000000               1046027             000                    000נט-פארם שיווק בע"מ אריזה וכלים                    2023011120230111799            0              1ILS+00000000001337+00000000000000+00000000000                           00010101                                  
B10000000002102196271703010000110000100000000               3800007869          000                    000רשת חנויות רמי לוי שיווק השיקמה 2006 בע"מ קניות   20230111202301112005                          1ILS+00000000049868+00000000000000+00000000000                           00010101                                  
B10000000002202196271703010000110000200000000               3800007869          000                    000רשת חנויות רמי לוי שיווק השיקמה 2006 בע"מ קניות   2023011120230111799            0              1ILS+00000000008477+00000000000000+00000000000                           00010101                                  
B10000000002302196271703010000100000100000000               1010173             000                    000המרכז לחד פעמי אריזה וכלים                        20230102202301021                             1ILS+00000000005983+00000000000000+00000000000                           00010101                                  
B10000000002402196271703010000100000200000000               1010173             000                    000המרכז לחד פעמי אריזה וכלים                        2023010220230102799            0              1ILS+00000000001017+00000000000000+00000000000                           00010101                                  
B10000000002502196271703010000070000100000000               690804              000                    000ספקים שונים קניות                                 20230110202301102005                          1ILS+00000000018577+00000000000000+00000000000                           00010101                                  
B10000000002602196271703010000070000200000000               690804              000                    000ספקים שונים קניות                                 2023011020230110799            0              1ILS+00000000003158+00000000000000+00000000000                           00010101                                  
B10000000002702196271703010000060000100000000               97415               000                    000כלבו קניות                                        20230110202301102005                          1ILS+00000000008696+00000000000000+00000000000                           00010101                                  
B10000000002802196271703010000060000200000000               97415               000                    000כלבו קניות                                        2023011020230110799            0              1ILS+00000000001478+00000000000000+00000000000                           00010101                                  
B10000000002902196271703010000050000100000000               97395               000                    000כלבו קניות                                        20230109202301092005                          1ILS+00000000002821+00000000000000+00000000000                           00010101                                  
B10000000003002196271703010000050000200000000               97395               000                    000כלבו קניות                                        2023010920230109799            0              1ILS+00000000000479+00000000000000+00000000000                           00010101                                  
B10000000003102196271703010000040000100000000               100566              000                    000כלבו קניות                                        20230106202301062005                          1ILS+00000000006167+00000000000000+00000000000                           00010101                                  
B10000000003202196271703010000040000200000000               100566              000                    000כלבו קניות                                        2023010620230106799            0              1ILS+00000000001048+00000000000000+00000000000                           00010101                                  
B10000000003302196271703020000120000100000000               101031              000                    000כלבו קניות                                        20230212202302122005                          1ILS+00000000002232+00000000000000+00000000000                           00010101                                  
B10000000003402196271703020000120000200000000               101031              000                    000כלבו קניות                                        2023021220230212799            0              1ILS+00000000000379+00000000000000+00000000000                           00010101                                  
B10000000003502196271703020000110000100000000               101253              000                    000כלבו קניות                                        20230214202302142005                          1ILS+00000000005696+00000000000000+00000000000                           00010101                                  
B10000000003602196271703020000110000200000000               101253              000                    000כלבו קניות                                        2023021420230214799            0              1ILS+00000000000968+00000000000000+00000000000                           00010101                                  
B10000000003702196271703020000100000100000000               1046028             000                    000נט-פארם שיווק בע"מ אריזה וכלים                    20230216202302161                             1ILS+00000000019316+00000000000000+00000000000                           00010101                                  
B10000000003802196271703020000100000200000000               1046028             000                    000נט-פארם שיווק בע"מ אריזה וכלים                    2023021620230216799            0              1ILS+00000000003284+00000000000000+00000000000                           00010101                                  
B10000000003902196271703020000080000100000000               3800008030          000                    000ספקים שונים קניות                                 20230216202302162005                          1ILS+00000000064941+00000000000000+00000000000                           00010101                                  
B10000000004002196271703020000080000200000000               3800008030          000                    000ספקים שונים קניות                                 2023021620230216799            0              1ILS+00000000011040+00000000000000+00000000000                           00010101                                  
B10000000004102196271703020000070000100000000               101596              000                    000כלבו קניות                                        20230217202302172005                          1ILS+00000000010342+00000000000000+00000000000                           00010101                                  
B10000000004202196271703020000070000200000000               101596              000                    000כלבו קניות                                        2023021720230217799            0              1ILS+00000000001758+00000000000000+00000000000                           00010101                                  
B10000000004302196271703020000060000100000000               514705763           000                    000כלבו קניות                                        20230221202302212005                          1ILS+00000000015128+00000000000000+00000000000                           00010101                                  
B10000000004402196271703020000060000200000000               514705763           000                    000כלבו קניות                                        2023022120230221799            0              1ILS+00000000002572+00000000000000+00000000000                           00010101                                  
B10000000004502196271703020000050000100000000               102058              000                    000כלבו קניות                                        20230221202302212005                          1ILS+00000000011709+00000000000000+00000000000                           00010101                                  
B10000000004602196271703020000050000200000000               102058              000                    000כלבו קניות                                        2023022120230221799            0              1ILS+00000000001991+00000000000000+00000000000                           00010101                                  
B10000000004702196271703020000040000100000000               102584              000                    000כלבו קניות                                        20230226202302262005                          1ILS+00000000002415+00000000000000+00000000000                           00010101                                  
B10000000004802196271703020000040000200000000               102584              000                    000כלבו קניות                                        2023022620230226799            0              1ILS+00000000000410+00000000000000+00000000000                           00010101                                  
B10000000004902196271703020000030000100000000               102616              000                    000כלבו קניות                                        20230226202302262005                          1ILS+00000000001978+00000000000000+00000000000                           00010101                                  
B10000000005002196271703020000030000200000000               102616              000                    000כלבו קניות                                        2023022620230226799            0              1ILS+00000000000336+00000000000000+00000000000                           00010101                                  
B10000000005102196271703020000090000100000000               3800008030          000                    000ספקים שונים קניות פטורות                          20230216202302162004                          1ILS+00000000013154+00000000000000+00000000000                           00010101                                  
B10000000005202196271703010000130000100000000               3800007948          000                    000רשת חנויות רמי לוי שיווק השיקמה 2006 בע"מ קניות   20230126202301262005                          1ILS+00000000041197+00000000000000+00000000000                           00010101                                  
B10000000005302196271703010000130000200000000               3800007948          000                    000רשת חנויות רמי לוי שיווק השיקמה 2006 בע"מ קניות   2023012620230126799            0              1ILS+00000000007003+00000000000000+00000000000                           00010101                                  
B10000000005402196271703020000130000100000000               3800007973          000                    000ספקים שונים קניות                                 20230202202302022005                          1ILS+00000000033248+00000000000000+00000000000                           00010101                                  
B10000000005502196271703020000130000200000000               3800007973          000                    000ספקים שונים קניות                                 2023020220230202799            0              1ILS+00000000005652+00000000000000+00000000000                           00010101                                  
B10000000005602196271703010000160000100000000               3800007890          000                    000רשת חנויות רמי לוי שיווק השיקמה 2006 בע"מ קניות   20230118202301182005                          1ILS+00000000051282+00000000000000+00000000000                           00010101                                  
B10000000005702196271703010000160000200000000               3800007890          000                    000רשת חנויות רמי לוי שיווק השיקמה 2006 בע"מ קניות   2023011820230118799            0              1ILS+00000000008718+00000000000000+00000000000                           00010101                                  
B10000000005802196271703030000170000100000000               3800008047          000                    000רשת חנויות רמי לוי שיווק השיקמה 2006 בע"מ קניות   20230222202302222005                          1ILS+00000000083504+00000000000000+00000000000                           00010101                                  
B10000000005902196271703030000170000200000000               3800008047          000                    000רשת חנויות רמי לוי שיווק השיקמה 2006 בע"מ קניות   2023022220230222799            0              1ILS+00000000014196+00000000000000+00000000000                           00010101                                  
B10000000006002196271703030000160000100000000               3800008074          000                    000רשת חנויות רמי לוי שיווק השיקמה 2006 בע"מ קניות   20230301202303012005                          1ILS+00000000083368+00000000000000+00000000000                           00010101                                  
B10000000006102196271703030000160000200000000               3800008074          000                    000רשת חנויות רמי לוי שיווק השיקמה 2006 בע"מ קניות   2023030120230301799            0              1ILS+00000000014172+00000000000000+00000000000                           00010101                                  
B10000000006202196271703030000150000100000000               3800008108          000                    000רשת חנויות רמי לוי שיווק השיקמה 2006 בע"מ קניות   20230316202303162005                          1ILS+00000000055544+00000000000000+00000000000                           00010101                                  
B10000000006302196271703030000150000200000000               3800008108          000                    000רשת חנויות רמי לוי שיווק השיקמה 2006 בע"מ קניות   2023031620230316799            0              1ILS+00000000009443+00000000000000+00000000000                           00010101                                  
B10000000006402196271703030000130000100000000               106220              000                    000כלבו קניות                                        20230330202303302005                          1ILS+00000000002607+00000000000000+00000000000                           00010101                                  
B10000000006502196271703030000130000200000000               106220              000                    000כלבו קניות                                        2023033020230330799            0              1ILS+00000000000443+00000000000000+00000000000                           00010101                                  
B10000000006602196271703030000140000100000000               103417              000                    000כלבו קניות                                        20230306202303062005                          1ILS+00000000013641+00000000000000+00000000000                           00010101                                  
B10000000006702196271703030000140000200000000               103417              000                    000כלבו קניות                                        2023030620230306799            0              1ILS+00000000002319+00000000000000+00000000000                           00010101                                  
B10000000006802196271703030000120000100000000               706562              000                    000ספקים שונים קניות                                 20230302202303022005                          1ILS+00000000013274+00000000000000+00000000000                           00010101                                  
B10000000006902196271703030000120000200000000               706562              000                    000ספקים שונים קניות                                 2023030220230302799            0              1ILS+00000000002256+00000000000000+00000000000                           00010101                                  
B10000000007002196271703030000100000100000000               1017150             000                    000כלבו קניות                                        20230301202303012005                          1ILS+00000000006325+00000000000000+00000000000                           00010101                                  
B10000000007102196271703030000100000200000000               1017150             000                    000כלבו קניות                                        2023030120230301799            0              1ILS+00000000001075+00000000000000+00000000000                           00010101                                  
B10000000007202196271703030000110000100000000               3800008125          000                    000רשת חנויות רמי לוי שיווק השיקמה 2006 בע"מ קניות   20230323202303232005                          1ILS+00000000077277+00000000000000+00000000000                           00010101                                  
B10000000007302196271703030000110000200000000               3800008125          000                    000רשת חנויות רמי לוי שיווק השיקמה 2006 בע"מ קניות   2023032320230323799            0              1ILS+00000000013137+00000000000000+00000000000                           00010101                                  
B10000000007402196271703030000090000100000000               104502              000                    000ספקים שונים קניות                                 20230314202303142005                          1ILS+00000000087672+00000000000000+00000000000                           00010101                                  
B10000000007502196271703030000090000200000000               104502              000                    000ספקים שונים קניות                                 2023031420230314799            0              1ILS+00000000014904+00000000000000+00000000000                           00010101                                  
B10000000007602196271703030000060000100000000               104504              000                    000כלבו קניות                                        20230315202303152005                          1ILS+00000000007504+00000000000000+00000000000                           00010101                                  
B10000000007702196271703030000060000200000000               104504              000                    000כלבו קניות                                        2023031520230315799            0              1ILS+00000000001276+00000000000000+00000000000                           00010101                                  
B10000000007802196271703030000080000100000000               105649              000                    000ספקים שונים קניות                                 20230309202303092005                          1ILS+00000000008889+00000000000000+00000000000                           00010101                                  
B10000000007902196271703030000080000200000000               105649              000                    000ספקים שונים קניות                                 2023030920230309799            0              1ILS+00000000001511+00000000000000+00000000000                           00010101                                  
B10000000008002196271703040000130000100000000               106937              000                    000כלבו קניות                                        20230405202304052005                          1ILS+00000000010812+00000000000000+00000000000                           00010101                                  
B10000000008102196271703040000130000200000000               106937              000                    000כלבו קניות                                        2023040520230405799            0              1ILS+00000000001838+00000000000000+00000000000                           00010101                                  
B10000000008202196271703040000110000100000000               107187              000                    000כלבו קניות                                        20230409202304092005                          1ILS+00000000008345+00000000000000+00000000000                           00010101                                  
B10000000008302196271703040000110000200000000               107187              000                    000כלבו קניות                                        2023040920230409799            0              1ILS+00000000001419+00000000000000+00000000000                           00010101                                  
B10000000008402196271703040000120000100000000               107502              000                    000כלבו קניות                                        20230402202304022005                          1ILS+00000000022991+00000000000000+00000000000                           00010101                                  
B10000000008502196271703040000120000200000000               107502              000                    000כלבו קניות                                        2023040220230402799            0              1ILS+00000000003909+00000000000000+00000000000                           00010101                                  
B10000000008602196271703040000100000100000000               108042              000                    000כלבו קניות                                        20230416202304162005                          1ILS+00000000008447+00000000000000+00000000000                           00010101                                  
B10000000008702196271703040000100000200000000               108042              000                    000כלבו קניות                                        2023041620230416799            0              1ILS+00000000001436+00000000000000+00000000000                           00010101                                  
B10000000008802196271703040000090000100000000               3800008231          000                    000ספקים שונים קניות                                 20230418202304182005                          1ILS+00000000073350+00000000000000+00000000000                           00010101                                  
B10000000008902196271703040000090000200000000               3800008231          000                    000ספקים שונים קניות                                 2023041820230418799            0              1ILS+00000000012469+00000000000000+00000000000                           00010101                                  
B10000000009002196271703030000050000100000000               105991              000                    000כלבו קניות                                        20230330202303302005                          1ILS+00000000027291+00000000000000+00000000000                           00010101                                  
B10000000009102196271703030000050000200000000               105991              000                    000כלבו קניות                                        2023033020230330799            0              1ILS+00000000004640+00000000000000+00000000000                           00010101                                  
B10000000009202196271703040000070000100000000               108993              000                    000כלבו קניות                                        20230424202304242005                          1ILS+00000000010160+00000000000000+00000000000                           00010101                                  
B10000000009302196271703040000070000200000000               108993              000                    000כלבו קניות                                        2023042420230424799            0              1ILS+00000000001727+00000000000000+00000000000                           00010101                                  
B10000000009402196271703030000040000100000000               725265              000                    000קניות פטורות                                      20230307202303072004                          1ILS+00000000004146+00000000000000+00000000000                           00010101                                  
B10000000009502196271703040000060000100000000               3800008263          000                    000ספקים שונים קניות                                 20230425202304252005                          1ILS+00000000081419+00000000000000+00000000000                           00010101                                  
B10000000009602196271703040000060000200000000               3800008263          000                    000ספקים שונים קניות                                 2023042520230425799            0              1ILS+00000000013841+00000000000000+00000000000                           00010101                                  
B10000000009702196271703050000120000100000000               3400                000                    000רשת חנויות רמי לוי שיווק השיקמה 2006 בע"מ קניות   20230517202305172005                          1ILS+00000000057513+00000000000000+00000000000                           00010101                                  
B10000000009802196271703050000120000200000000               3400                000                    000רשת חנויות רמי לוי שיווק השיקמה 2006 בע"מ קניות   2023051720230517799            0              1ILS+00000000009777+00000000000000+00000000000                           00010101                                  
B10000000009902196271703050000100000100000000               3800008302          000                    000קניות                                             20230504202305042005                          1ILS+00000000050810+00000000000000+00000000000                           00010101                                  
B10000000010002196271703050000100000200000000               3800008302          000                    000קניות                                             2023050420230504799            0              1ILS+00000000008638+00000000000000+00000000000                           00010101                                  
B10000000010102196271703060000110000100000000               1001037314          000                    000מקס סטוק קרית שמונה בע"מ אריזה וכלים              20230619202306191                             1ILS+00000000012239+00000000000000+00000000000                           00010101                                  
B10000000010202196271703060000110000200000000               1001037314          000                    000מקס סטוק קרית שמונה בע"מ אריזה וכלים              2023061920230619799            0              1ILS+00000000002081+00000000000000+00000000000                           00010101                                  
B10000000010302196271703060000100000100000000               6761                000                    000קניות                                             20230621202306212005                          1ILS+00000000166667+00000000000000+00000000000                           00010101                                  
B10000000010402196271703060000100000200000000               6761                000                    000קניות                                             2023062120230621799            0              1ILS+00000000028333+00000000000000+00000000000                           00010101                                  
B10000000010502196271703060000090000100000000               115856              000                    000כלבו קניות                                        20230620202306202005                          1ILS+00000000013846+00000000000000+00000000000                           00010101                                  
B10000000010602196271703060000090000200000000               115856              000                    000כלבו קניות                                        2023062020230620799            0              1ILS+00000000002354+00000000000000+00000000000                           00010101                                  
B10000000010702196271703050000090000100000000               116108              000                    000כלבו קניות                                        20230510202305102005                          1ILS+00000000005158+00000000000000+00000000000                           00010101                                  
B10000000010802196271703050000090000200000000               116108              000                    000כלבו קניות                                        2023051020230510799            0              1ILS+00000000000877+00000000000000+00000000000                           00010101                                  
B10000000010902196271703050000080000100000000               1035682             000                    000כלבו קניות                                        20230504202305042005                          1ILS+00000000009786+00000000000000+00000000000                           00010101                                  
B10000000011002196271703050000080000200000000               1035682             000                    000כלבו קניות                                        2023050420230504799            0              1ILS+00000000001664+00000000000000+00000000000                           00010101                                  
B10000000011102196271703050000070000100000000               110578              000                    000כלבו קניות                                        20230518202305182005                          1ILS+00000000003419+00000000000000+00000000000                           00010101                                  
B10000000011202196271703050000070000200000000               110578              000                    000כלבו קניות                                        2023051820230518799            0              1ILS+00000000000581+00000000000000+00000000000                           00010101                                  
B10000000011302196271703050000060000100000000               1038039             000                    000כלבו קניות                                        20230511202305112005                          1ILS+00000000025712+00000000000000+00000000000                           00010101                                  
B10000000011402196271703050000060000200000000               1038039             000                    000כלבו קניות                                        2023051120230511799            0              1ILS+00000000004371+00000000000000+00000000000                           00010101                                  
B10000000011502196271703050000050000100000000               3800008423          000                    000רשת חנויות רמי לוי שיווק השיקמה 2006 בע"מ קניות   20230524202305242005                          1ILS+00000000062026+00000000000000+00000000000                           00010101                                  
B10000000011602196271703050000050000200000000               3800008423          000                    000רשת חנויות רמי לוי שיווק השיקמה 2006 בע"מ קניות   2023052420230524799            0              1ILS+00000000010544+00000000000000+00000000000                           00010101                                  
B10000000011702196271703060000080000100000000               3800008589          000                    000רשת חנויות רמי לוי שיווק השיקמה 2006 בע"מ קניות   20230628202306282005                          1ILS+00000000075159+00000000000000+00000000000                           00010101                                  
B10000000011802196271703060000080000200000000               3800008589          000                    000רשת חנויות רמי לוי שיווק השיקמה 2006 בע"מ קניות   2023062820230628799            0              1ILS+00000000012777+00000000000000+00000000000                           00010101                                  
B10000000011902196271703050000040000100000000               112939              000                    000כלבו קניות                                        20230524202305242005                          1ILS+00000000004353+00000000000000+00000000000                           00010101                                  
B10000000012002196271703050000040000200000000               112939              000                    000כלבו קניות                                        2023052420230524799            0              1ILS+00000000000740+00000000000000+00000000000                           00010101                                  
B10000000012102196271703050000030000100000000               113018              000                    000כלבו קניות                                        20230527202305272005                          1ILS+00000000004684+00000000000000+00000000000                           00010101                                  
B10000000012202196271703050000030000200000000               113018              000                    000כלבו קניות                                        2023052720230527799            0              1ILS+00000000000796+00000000000000+00000000000                           00010101                                  
B10000000012302196271703050000020000100000000               112480              000                    000כלבו קניות                                        20230523202305232005                          1ILS+00000000012222+00000000000000+00000000000                           00010101                                  
B10000000012402196271703050000020000200000000               112480              000                    000כלבו קניות                                        2023052320230523799            0              1ILS+00000000002078+00000000000000+00000000000                           00010101                                  
B10000000012502196271703060000070000100000000               114411              000                    000כלבו קניות                                        20230606202306062005                          1ILS+00000000009092+00000000000000+00000000000                           00010101                                  
B10000000012602196271703060000070000200000000               114411              000                    000כלבו קניות                                        2023060620230606799            0              1ILS+00000000001546+00000000000000+00000000000                           00010101                                  
B10000000012702196271703060000050000100000000               3800008477          000                    000רשת חנויות רמי לוי שיווק השיקמה 2006 בע"מ קניות   20230607202306072005                          1ILS+00000000054282+00000000000000+00000000000                           00010101                                  
B10000000012802196271703060000050000200000000               3800008477          000                    000רשת חנויות רמי לוי שיווק השיקמה 2006 בע"מ קניות   2023060720230607799            0              1ILS+00000000009228+00000000000000+00000000000                           00010101                                  
B10000000012902196271703060000060000100000000               114768              000                    000כלבו קניות                                        20230611202306112005                          1ILS+00000000006666+00000000000000+00000000000                           00010101                                  
B10000000013002196271703060000060000200000000               114768              000                    000כלבו קניות                                        2023061120230611799            0              1ILS+00000000001133+00000000000000+00000000000                           00010101                                  
B10000000013102196271703050000010000100000000               3800008443          000                    000רשת חנויות רמי לוי שיווק השיקמה 2006 בע"מ קניות   20230531202305312005                          1ILS+00000000045957+00000000000000+00000000000                           00010101                                  
B10000000013202196271703050000010000200000000               3800008443          000                    000רשת חנויות רמי לוי שיווק השיקמה 2006 בע"מ קניות   2023053120230531799            0              1ILS+00000000007813+00000000000000+00000000000                           00010101                                  
B10000000013302196271703060000030000100000000               3800008519          000                    000רשת חנויות רמי לוי שיווק השיקמה 2006 בע"מ קניות   20230614202306142005                          1ILS+00000000057901+00000000000000+00000000000                           00010101                                  
B10000000013402196271703060000030000200000000               3800008519          000                    000רשת חנויות רמי לוי שיווק השיקמה 2006 בע"מ קניות   2023061420230614799            0              1ILS+00000000009843+00000000000000+00000000000                           00010101                                  
B10000000013502196271703060000040000100000000               110448              000                    000כלבו קניות                                        20230613202306132005                          1ILS+00000000011115+00000000000000+00000000000                           00010101                                  
B10000000013602196271703060000040000200000000               110448              000                    000כלבו קניות                                        2023061320230613799            0              1ILS+00000000001890+00000000000000+00000000000                           00010101                                  
B10000000013702196271703060000020000100000000               10010022116         000                    000קניות                                             20230613202306132005                          1ILS+00000000018177+00000000000000+00000000000                           00010101                                  
B10000000013802196271703060000020000200000000               10010022116         000                    000קניות                                             2023061320230613799            0              1ILS+00000000003090+00000000000000+00000000000                           00010101                                  
B10000000013902196271703080000120000100000000               689                 000                    000קניות                                             20230829202308292005                          1ILS+00000000273504+00000000000000+00000000000                           00010101                                  
B10000000014002196271703080000120000200000000               689                 000                    000קניות                                             2023082920230829799            0              1ILS+00000000046496+00000000000000+00000000000                           00010101                                  
B10000000014102196271703080000100000100000000               380506004062        000                    000קניות                                             20230828202308282005                          1ILS+00000000060798+00000000000000+00000000000                           00010101                                  
B10000000014202196271703080000100000200000000               380506004062        000                    000קניות                                             2023082820230828799            0              1ILS+00000000010336+00000000000000+00000000000                           00010101                                  
B10000000014302196271703080000080000100000000               28397               000                    000קניות                                             20230816202308162005                          1ILS+00000000013504+00000000000000+00000000000                           00010101                                  
B10000000014402196271703080000080000200000000               28397               000                    000קניות                                             2023081620230816799            0              1ILS+00000000002296+00000000000000+00000000000                           00010101                                  
B10000000014502196271703080000060000100000000               3800008847          000                    000רשת חנויות רמי לוי שיווק השיקמה 2006 בע"מ קניות   20230810202308102005                          1ILS+00000000078430+00000000000000+00000000000                           00010101                                  
B10000000014602196271703080000060000200000000               3800008847          000                    000רשת חנויות רמי לוי שיווק השיקמה 2006 בע"מ קניות   2023081020230810799            0              1ILS+00000000013333+00000000000000+00000000000                           00010101                                  
B10000000014702196271703080000050000100000000               122743              000                    000כלבו קניות                                        20230815202308152005                          1ILS+00000000005897+00000000000000+00000000000                           00010101                                  
B10000000014802196271703080000050000200000000               122743              000                    000כלבו קניות                                        2023081520230815799            0              1ILS+00000000001003+00000000000000+00000000000                           00010101                                  
B10000000014902196271703080000040000100000000               122877              000                    000כלבו קניות                                        20230816202308162005                          1ILS+00000000003846+00000000000000+00000000000                           00010101                                  
B10000000015002196271703080000040000200000000               122877              000                    000כלבו קניות                                        2023081620230816799            0              1ILS+00000000000654+00000000000000+00000000000                           00010101                                  
B10000000015102196271703080000030000100000000               121921              000                    000כלבו קניות                                        20230810202308102005                          1ILS+00000000003532+00000000000000+00000000000                           00010101                                  
B10000000015202196271703080000030000200000000               121921              000                    000כלבו קניות                                        2023081020230810799            0              1ILS+00000000000600+00000000000000+00000000000                           00010101                                  
B10000000015302196271703070000130000100000000               285164              000                    000רשת חנויות רמי לוי שיווק השיקמה 2006 בע"מ קניות פט20230731202307312004                          1ILS+00000000016016+00000000000000+00000000000                           00010101                                  
B10000000015402196271703070000100000100000000               1838779             000                    000רשת חנויות רמי לוי שיווק השיקמה 2006 בע"מ קניות   20230724202307242005                          1ILS+00000000048414+00000000000000+00000000000                           00010101                                  
B10000000015502196271703070000100000200000000               1838779             000                    000רשת חנויות רמי לוי שיווק השיקמה 2006 בע"מ קניות   2023072420230724799            0              1ILS+00000000008230+00000000000000+00000000000                           00010101                                  
B10000000015602196271703070000090000100000000               8609                000                    000רשת חנויות רמי לוי שיווק השיקמה 2006 בע"מ קניות פט20230713202307132004                          1ILS+00000000017406+00000000000000+00000000000                           00010101                                  
B10000000015702196271703070000070000100000000               6824                000                    000קניות                                             20230711202307112005                          1ILS+00000000154470+00000000000000+00000000000                           00010101                                  
B10000000015802196271703070000070000200000000               6824                000                    000קניות                                             2023071120230711799            0              1ILS+00000000026260+00000000000000+00000000000                           00010101                                  
B10000000015902196271703070000060000100000000               117550              000                    000כלבו קניות                                        20230704202307042005                          1ILS+00000000012513+00000000000000+00000000000                           00010101                                  
B10000000016002196271703070000060000200000000               117550              000                    000כלבו קניות                                        2023070420230704799            0              1ILS+00000000002127+00000000000000+00000000000                           00010101                                  
B10000000016102196271703070000050000100000000               118769              000                    000כלבו קניות                                        20230714202307142005                          1ILS+00000000004774+00000000000000+00000000000                           00010101                                  
B10000000016202196271703070000050000200000000               118769              000                    000כלבו קניות                                        2023071420230714799            0              1ILS+00000000000812+00000000000000+00000000000                           00010101                                  
B10000000016302196271703070000040000100000000               119290              000                    000כלבו קניות                                        20230717202307172005                          1ILS+00000000009231+00000000000000+00000000000                           00010101                                  
B10000000016402196271703070000040000200000000               119290              000                    000כלבו קניות                                        2023071720230717799            0              1ILS+00000000001569+00000000000000+00000000000                           00010101                                  
B10000000016502196271703070000030000100000000               119773              000                    000כלבו קניות                                        20230721202307212005                          1ILS+00000000005262+00000000000000+00000000000                           00010101                                  
B10000000016602196271703070000030000200000000               119773              000                    000כלבו קניות                                        2023072120230721799            0              1ILS+00000000000894+00000000000000+00000000000                           00010101                                  
B10000000016702196271703070000010000100000000               120179              000                    000כלבו קניות                                        20230725202307252005                          1ILS+00000000004017+00000000000000+00000000000                           00010101                                  
B10000000016802196271703070000010000200000000               120179              000                    000כלבו קניות                                        2023072520230725799            0              1ILS+00000000000683+00000000000000+00000000000                           00010101                                  
B10000000016902196271703070000020000100000000               120327              000                    000כלבו קניות                                        20230726202307262005                          1ILS+00000000007822+00000000000000+00000000000                           00010101                                  
B10000000017002196271703070000020000200000000               120327              000                    000כלבו קניות                                        2023072620230726799            0              1ILS+00000000001330+00000000000000+00000000000                           00010101                                  
B10000000017102196271703080000020000100000000               221211              000                    000כלבו קניות                                        20230802202308022005                          1ILS+00000000026568+00000000000000+00000000000                           00010101                                  
B10000000017202196271703080000020000200000000               221211              000                    000כלבו קניות                                        2023080220230802799            0              1ILS+00000000004516+00000000000000+00000000000                           00010101                                  
B10000000017302196271703080000010000100000000               123988              000                    000כלבו קניות                                        20230825202308252005                          1ILS+00000000009330+00000000000000+00000000000                           00010101                                  
B10000000017402196271703080000010000200000000               123988              000                    000כלבו קניות                                        2023082520230825799            0              1ILS+00000000001586+00000000000000+00000000000                           00010101                                  
B10000000017502196271703070000080000100000000               8638                000                    000רשת חנויות רמי לוי שיווק השיקמה 2006 בע"מ קניות   20230713202307132005                          1ILS+00000000035174+00000000000000+00000000000                           00010101                                  
B10000000017602196271703070000080000200000000               8638                000                    000רשת חנויות רמי לוי שיווק השיקמה 2006 בע"מ קניות   2023071320230713799            0              1ILS+00000000005980+00000000000000+00000000000                           00010101                                  
B10000000017702196271703070000110000100000000               1838779             000                    000רשת חנויות רמי לוי שיווק השיקמה 2006 בע"מ קניות פט20230724202307242004                          1ILS+00000000017762+00000000000000+00000000000                           00010101                                  
B10000000017802196271703070000120000100000000               285164              000                    000רשת חנויות רמי לוי שיווק השיקמה 2006 בע"מ קניות   20230731202307312005                          1ILS+00000000047345+00000000000000+00000000000                           00010101                                  
B10000000017902196271703070000120000200000000               285164              000                    000רשת חנויות רמי לוי שיווק השיקמה 2006 בע"מ קניות   2023073120230731799            0              1ILS+00000000008049+00000000000000+00000000000                           00010101                                  
B10000000018002196271703080000070000100000000               3800008847          000                    000רשת חנויות רמי לוי שיווק השיקמה 2006 בע"מ קניות פט20230810202308102004                          1ILS+00000000011797+00000000000000+00000000000                           00010101                                  
B10000000018102196271703080000090000100000000               688                 000                    000קניות                                             20230816202308162005                          1ILS+00000000132479+00000000000000+00000000000                           00010101                                  
B10000000018202196271703080000090000200000000               688                 000                    000קניות                                             2023081620230816799            0              1ILS+00000000022521+00000000000000+00000000000                           00010101                                  
B10000000018302196271703080000110000100000000               380506004062        000                    000קניות פטורות                                      20230828202308282004                          1ILS+00000000014966+00000000000000+00000000000                           00010101                                  
B10000000018402196271703080000130000100000000               122666              000                    000כלבו קניות                                        20230814202308142005                          1ILS+00000000009316+00000000000000+00000000000                           00010101                                  
B10000000018502196271703080000130000200000000               122666              000                    000כלבו קניות                                        2023081420230814799            0              1ILS+00000000001584+00000000000000+00000000000                           00010101                                  
B10000000018602196271703040000050000100000000               725265              000                    000קניות                                             20230427202304272005                          1ILS+00000000014692+00000000000000+00000000000                           00010101                                  
B10000000018702196271703040000050000200000000               725265              000                    000קניות                                             2023042720230427799            0              1ILS+00000000002498+00000000000000+00000000000                           00010101                                  
B10000000018802196271703030000070000100000000               105649              000                    000כלבו קניות                                        20230309202303092005                          1ILS+00000000002272+00000000000000+00000000000                           00010101                                  
B10000000018902196271703030000070000200000000               105649              000                    000כלבו קניות                                        2023030920230309799            0              1ILS+00000000000386+00000000000000+00000000000                           00010101                                  
B10000000019002196271703040000020000100000000               109612              000                    000כלבו קניות פטורות                                 20230430202304302004                          1ILS+00000000002572+00000000000000+00000000000                           00010101                                  
B10000000019102196271703050000130000100000000               109859              000                    000כלבו קניות                                        20230502202305022005                          1ILS+00000000006000+00000000000000+00000000000                           00010101                                  
B10000000019202196271703050000130000200000000               109859              000                    000כלבו קניות                                        2023050220230502799            0              1ILS+00000000001020+00000000000000+00000000000                           00010101                                  
B10000000019302196271703090000140000100000000               694                 000                    000ספקים שונים קניות                                 20230913202309132005                          1ILS+00000000129915+00000000000000+00000000000                           00010101                                  
B10000000019402196271703090000140000200000000               694                 000                    000ספקים שונים קניות                                 2023091320230913799            0              1ILS+00000000022085+00000000000000+00000000000                           00010101                                  
B10000000019502196271703090000130000100000000               689                 000                    000ספקים שונים קניות                                 20230816202308162005                          1ILS+00000000273504+00000000000000+00000000000                           00010101                                  
B10000000019602196271703090000130000200000000               689                 000                    000ספקים שונים קניות                                 2023081620230816799            0              1ILS+00000000046496+00000000000000+00000000000                           00010101                                  
B10000000019702196271703090000120000100000000               126562              000                    000כלבו קניות                                        20230914202309142005                          1ILS+00000000007436+00000000000000+00000000000                           00010101                                  
B10000000019802196271703090000120000200000000               126562              000                    000כלבו קניות                                        2023091420230914799            0              1ILS+00000000001264+00000000000000+00000000000                           00010101                                  
B10000000019902196271703100000110000100000000               127832              000                    000כלבו קניות                                        20231002202310022005                          1ILS+00000000003845+00000000000000+00000000000                           00010101                                  
B10000000020002196271703100000110000200000000               127832              000                    000כלבו קניות                                        2023100220231002799            0              1ILS+00000000000654+00000000000000+00000000000                           00010101                                  
B10000000020102196271703090000110000100000000               127890              000                    000כלבו קניות                                        20230927202309272005                          1ILS+00000000009268+00000000000000+00000000000                           00010101                                  
B10000000020202196271703090000110000200000000               127890              000                    000כלבו קניות                                        2023092720230927799            0              1ILS+00000000001576+00000000000000+00000000000                           00010101                                  
B10000000020302196271703100000060000100000000               133                 000                    000רשת חנויות רמי לוי שיווק השיקמה 2006 בע"מ קניות   20231011202310112005                          1ILS+00000000086410+00000000000000+00000000000                           00010101                                  
B10000000020402196271703100000060000200000000               133                 000                    000רשת חנויות רמי לוי שיווק השיקמה 2006 בע"מ קניות   2023101120231011799            0              1ILS+00000000014690+00000000000000+00000000000                           00010101                                  
B10000000020502196271703090000060000100000000               125231              000                    000כלבו קניות                                        20230905202309052005                          1ILS+00000000015105+00000000000000+00000000000                           00010101                                  
B10000000020602196271703090000060000200000000               125231              000                    000כלבו קניות                                        2023090520230905799            0              1ILS+00000000002568+00000000000000+00000000000                           00010101                                  
B10000000020702196271703090000040000100000000               126133              000                    000כלבו קניות                                        20230914202309142005                          1ILS+00000000009009+00000000000000+00000000000                           00010101                                  
B10000000020802196271703090000040000200000000               126133              000                    000כלבו קניות                                        2023091420230914799            0              1ILS+00000000001532+00000000000000+00000000000                           00010101                                  
B10000000020902196271703090000030000100000000               383205009590        000                    000רשת חנויות רמי לוי שיווק השיקמה 2006 בע"מ קניות   20230913202309132005                          1ILS+00000000047800+00000000000000+00000000000                           00010101                                  
B10000000021002196271703090000030000200000000               383205009590        000                    000רשת חנויות רמי לוי שיווק השיקמה 2006 בע"מ קניות   2023091320230913799            0              1ILS+00000000008126+00000000000000+00000000000                           00010101                                  
B10000000021102196271703100000040000100000000               129250              000                    000כלבו קניות                                        20231008202310082005                          1ILS+00000000005351+00000000000000+00000000000                           00010101                                  
B10000000021202196271703100000040000200000000               129250              000                    000כלבו קניות                                        2023100820231008799            0              1ILS+00000000000910+00000000000000+00000000000                           00010101                                  
B10000000021302196271703100000030000100000000               123069              000                    000כלבו קניות                                        20231010202310102005                          1ILS+00000000003407+00000000000000+00000000000                           00010101                                  
B10000000021402196271703100000030000200000000               123069              000                    000כלבו קניות                                        2023101020231010799            0              1ILS+00000000000579+00000000000000+00000000000                           00010101                                  
B10000000021502196271703100000020000100000000               128742              000                    000כלבו קניות                                        20231004202310042005                          1ILS+00000000003718+00000000000000+00000000000                           00010101                                  
B10000000021602196271703100000020000200000000               128742              000                    000כלבו קניות                                        2023100420231004799            0              1ILS+00000000000632+00000000000000+00000000000                           00010101                                  
B10000000021702196271703090000010000100000000               129577              000                    000כלבו קניות                                        20230906202309062005                          1ILS+00000000007327+00000000000000+00000000000                           00010101                                  
B10000000021802196271703090000010000200000000               129577              000                    000כלבו קניות                                        2023090620230906799            0              1ILS+00000000001246+00000000000000+00000000000                           00010101                                  
B10000000021902196271703100000010000100000000               380204000743        000                    000רשת חנויות רמי לוי שיווק השיקמה 2006 בע"מ קניות   20231017202310172005                          1ILS+00000000087253+00000000000000+00000000000                           00010101                                  
B10000000022002196271703100000010000200000000               380204000743        000                    000רשת חנויות רמי לוי שיווק השיקמה 2006 בע"מ קניות   2023101720231017799            0              1ILS+00000000014833+00000000000000+00000000000                           00010101                                  
B10000000022102196271703090000020000100000000               383205009590        000                    000רשת חנויות רמי לוי שיווק השיקמה 2006 בע"מ קניות פט20230913202309132004                          1ILS+00000000019964+00000000000000+00000000000                           00010101                                  
B10000000022202196271703090000050000100000000               383405013331        000                    000רשת חנויות רמי לוי שיווק השיקמה 2006 בע"מ קניות פט20230906202309062004                          1ILS+00000000011511+00000000000000+00000000000                           00010101                                  
B10000000022302196271703100000050000100000000               133                 000                    000רשת חנויות רמי לוי שיווק השיקמה 2006 בע"מ קניות פט20231011202310112004                          1ILS+00000000014163+00000000000000+00000000000                           00010101                                  
B10000000022402196271703100000100000100000000               380206000755        000                    000רשת חנויות רמי לוי שיווק השיקמה 2006 בע"מ קניות   20231024202310242005                          1ILS+00000000076070+00000000000000+00000000000                           00010101                                  
B10000000022502196271703100000100000200000000               380206000755        000                    000רשת חנויות רמי לוי שיווק השיקמה 2006 בע"מ קניות   2023102420231024799            0              1ILS+00000000012932+00000000000000+00000000000                           00010101                                  
B10000000022602196271703100000090000100000000               131442              000                    000כלבו קניות                                        20231024202310242005                          1ILS+00000000020256+00000000000000+00000000000                           00010101                                  
B10000000022702196271703100000090000200000000               131442              000                    000כלבו קניות                                        2023102420231024799            0              1ILS+00000000003444+00000000000000+00000000000                           00010101                                  
B10000000022802196271703100000080000100000000               132263              000                    000כלבו קניות                                        20231031202310312005                          1ILS+00000000007350+00000000000000+00000000000                           00010101                                  
B10000000022902196271703100000080000200000000               132263              000                    000כלבו קניות                                        2023103120231031799            0              1ILS+00000000001250+00000000000000+00000000000                           00010101                                  
B10000000023002196271703120000040000100000000               141106002879        000                    000רשת חנויות רמי לוי שיווק השיקמה 2006 בע"מ קניות   20231203202312032005                          1ILS+00000000094932+00000000000000+00000000000                           00010101                                  
B10000000023102196271703120000040000200000000               141106002879        000                    000רשת חנויות רמי לוי שיווק השיקמה 2006 בע"מ קניות   2023120320231203799            0              1ILS+00000000016138+00000000000000+00000000000                           00010101                                  
B10000000023202196271703120000030000100000000               5014848             000                    000קניות                                             20231203202312032005                          1ILS+00000000054785+00000000000000+00000000000                           00010101                                  
B10000000023302196271703120000030000200000000               5014848             000                    000קניות                                             2023120320231203799            0              1ILS+00000000009314+00000000000000+00000000000                           00010101                                  
B10000000023402196271703110000190000100000000               40406002355         000                    000קניות                                             20231107202311072005                          1ILS+00000000215584+00000000000000+00000000000                           00010101                                  
B10000000023502196271703110000190000200000000               40406002355         000                    000קניות                                             2023110720231107799            0              1ILS+00000000036649+00000000000000+00000000000                           00010101                                  
B10000000023602196271703110000180000100000000               380206000797        000                    000רשת חנויות רמי לוי שיווק השיקמה 2006 בע"מ קניות   20231116202311162005                          1ILS+00000000090488+00000000000000+00000000000                           00010101                                  
B10000000023702196271703110000180000200000000               380206000797        000                    000רשת חנויות רמי לוי שיווק השיקמה 2006 בע"מ קניות   2023111620231116799            0              1ILS+00000000015383+00000000000000+00000000000                           00010101                                  
B10000000023802196271703110000170000100000000               1400013041          000                    000קניות                                             20231126202311262005                          1ILS+00000000066444+00000000000000+00000000000                           00010101                                  
B10000000023902196271703110000170000200000000               1400013041          000                    000קניות                                             2023112620231126799            0              1ILS+00000000011296+00000000000000+00000000000                           00010101                                  
B10000000024002196271703110000160000100000000               253822              000                    000כלבו קניות                                        20231122202311222005                          1ILS+00000000008944+00000000000000+00000000000                           00010101                                  
B10000000024102196271703110000160000200000000               253822              000                    000כלבו קניות                                        2023112220231122799            0              1ILS+00000000001520+00000000000000+00000000000                           00010101                                  
B10000000024202196271703110000150000100000000               134949              000                    000כלבו קניות                                        20231122202311222005                          1ILS+00000000013034+00000000000000+00000000000                           00010101                                  
B10000000024302196271703110000150000200000000               134949              000                    000כלבו קניות                                        2023112220231122799            0              1ILS+00000000002216+00000000000000+00000000000                           00010101                                  
B10000000024402196271703110000140000100000000               134074              000                    000כלבו קניות                                        20231113202311132005                          1ILS+00000000038803+00000000000000+00000000000                           00010101                                  
B10000000024502196271703110000140000200000000               134074              000                    000כלבו קניות                                        2023111320231113799            0              1ILS+00000000006597+00000000000000+00000000000                           00010101                                  
B10000000024602196271703110000130000100000000               133599              000                    000כלבו קניות                                        20231111202311112005                          1ILS+00000000016363+00000000000000+00000000000                           00010101                                  
B10000000024702196271703110000130000200000000               133599              000                    000כלבו קניות                                        2023111120231111799            0              1ILS+00000000002782+00000000000000+00000000000                           00010101                                  
B10000000024802196271703110000120000100000000               134556              000                    000כלבו קניות                                        20231119202311192005                          1ILS+00000000003761+00000000000000+00000000000                           00010101                                  
B10000000024902196271703110000120000200000000               134556              000                    000כלבו קניות                                        2023111920231119799            0              1ILS+00000000000639+00000000000000+00000000000                           00010101                                  
B10000000025002196271703110000110000100000000               134021              000                    000כלבו קניות                                        20231114202311142005                          1ILS+00000000026514+00000000000000+00000000000                           00010101                                  
B10000000025102196271703110000110000200000000               134021              000                    000כלבו קניות                                        2023111420231114799            0              1ILS+00000000004507+00000000000000+00000000000                           00010101                                  
B10000000025202196271703110000100000100000000               134641              000                    000כלבו קניות                                        20231110202311102005                          1ILS+00000000008803+00000000000000+00000000000                           00010101                                  
B10000000025302196271703110000100000200000000               134641              000                    000כלבו קניות                                        2023111020231110799            0              1ILS+00000000001497+00000000000000+00000000000                           00010101                                  
B10000000025402196271703110000090000100000000               133968              000                    000כלבו קניות                                        20231117202311172005                          1ILS+00000000017801+00000000000000+00000000000                           00010101                                  
B10000000025502196271703110000090000200000000               133968              000                    000כלבו קניות                                        2023111720231117799            0              1ILS+00000000003026+00000000000000+00000000000                           00010101                                  
B10000000025602196271703110000080000100000000               134514              000                    000כלבו קניות                                        20231115202311152005                          1ILS+00000000007521+00000000000000+00000000000                           00010101                                  
B10000000025702196271703110000080000200000000               134514              000                    000כלבו קניות                                        2023111520231115799            0              1ILS+00000000001279+00000000000000+00000000000                           00010101                                  
B10000000025802196271703110000070000100000000               134783              000                    000כלבו קניות                                        20231121202311212005                          1ILS+00000000039245+00000000000000+00000000000                           00010101                                  
B10000000025902196271703110000070000200000000               134783              000                    000כלבו קניות                                        2023112120231121799            0              1ILS+00000000006672+00000000000000+00000000000                           00010101                                  
B10000000026002196271703110000060000100000000               135246              000                    000כלבו קניות                                        20231128202311282005                          1ILS+00000000006286+00000000000000+00000000000                           00010101                                  
B10000000026102196271703110000060000200000000               135246              000                    000כלבו קניות                                        2023112820231128799            0              1ILS+00000000001069+00000000000000+00000000000                           00010101                                  
B10000000026202196271703110000050000100000000               135573              000                    000כלבו קניות                                        20231127202311272005                          1ILS+00000000003721+00000000000000+00000000000                           00010101                                  
B10000000026302196271703110000050000200000000               135573              000                    000כלבו קניות                                        2023112720231127799            0              1ILS+00000000000633+00000000000000+00000000000                           00010101                                  
B10000000026402196271703110000040000100000000               135898              000                    000כלבו קניות                                        20231127202311272005                          1ILS+00000000008935+00000000000000+00000000000                           00010101                                  
B10000000026502196271703110000040000200000000               135898              000                    000כלבו קניות                                        2023112720231127799            0              1ILS+00000000001519+00000000000000+00000000000                           00010101                                  
B10000000026602196271703110000030000100000000               135343              000                    000קניות                                             20231126202311262005                          1ILS+00000000030930+00000000000000+00000000000                           00010101                                  
B10000000026702196271703110000030000200000000               135343              000                    000קניות                                             2023112620231126799            0              1ILS+00000000005258+00000000000000+00000000000                           00010101                                  
B10000000026802196271703110000020000100000000               135045              000                    000כלבו קניות                                        20231123202311232005                          1ILS+00000000027038+00000000000000+00000000000                           00010101                                  
B10000000026902196271703110000020000200000000               135045              000                    000כלבו קניות                                        2023112320231123799            0              1ILS+00000000004596+00000000000000+00000000000                           00010101                                  
B10000000027002196271703120000020000100000000               136514              000                    000כלבו קניות                                        20231205202312052005                          1ILS+00000000002602+00000000000000+00000000000                           00010101                                  
B10000000027102196271703120000020000200000000               136514              000                    000כלבו קניות                                        2023120520231205799            0              1ILS+00000000000442+00000000000000+00000000000                           00010101                                  
B10000000027202196271703120000010000100000000               804887              000                    000מרכז הגולן לקניות בע"מ קניות                      20231206202312062005                          1ILS+00000000012128+00000000000000+00000000000                           00010101                                  
B10000000027302196271703120000010000200000000               804887              000                    000מרכז הגולן לקניות בע"מ קניות                      2023120620231206799            0              1ILS+00000000002062+00000000000000+00000000000                           00010101                                  
B10000000027402196271703120000100000100000000               137105              000                    000כלבו קניות                                        20231210202312102005                          1ILS+00000000011018+00000000000000+00000000000                           00010101                                  
B10000000027502196271703120000100000200000000               137105              000                    000כלבו קניות                                        2023121020231210799            0              1ILS+00000000001873+00000000000000+00000000000                           00010101                                  
B10000000027602196271703120000090000100000000               16609318            000                    000רשת חנויות רמי לוי שיווק השיקמה 2006 בע"מ קניות   20231210202312102005                          1ILS+00000000085703+00000000000000+00000000000                           00010101                                  
B10000000027702196271703120000090000200000000               16609318            000                    000רשת חנויות רמי לוי שיווק השיקמה 2006 בע"מ קניות   2023121020231210799            0              1ILS+00000000014570+00000000000000+00000000000                           00010101                                  
B10000000027802196271703120000080000100000000               137776              000                    000כלבו קניות                                        20231214202312142005                          1ILS+00000000002829+00000000000000+00000000000                           00010101                                  
B10000000027902196271703120000080000200000000               137776              000                    000כלבו קניות                                        2023121420231214799            0              1ILS+00000000000481+00000000000000+00000000000                           00010101                                  
B10000000028002196271703120000070000100000000               138048              000                    000כלבו קניות                                        20231217202312172005                          1ILS+00000000021311+00000000000000+00000000000                           00010101                                  
B10000000028102196271703120000070000200000000               138048              000                    000כלבו קניות                                        2023121720231217799            0              1ILS+00000000003623+00000000000000+00000000000                           00010101                                  
B10000000028202196271703120000060000100000000               138109              000                    000כלבו קניות                                        20231217202312172005                          1ILS+00000000025359+00000000000000+00000000000                           00010101                                  
B10000000028302196271703120000060000200000000               138109              000                    000כלבו קניות                                        2023121720231217799            0              1ILS+00000000004311+00000000000000+00000000000                           00010101                                  
B10000000028402196271703120000050000100000000               138016              000                    000כלבו קניות                                        20231217202312172005                          1ILS+00000000001812+00000000000000+00000000000                           00010101                                  
B10000000028502196271703120000050000200000000               138016              000                    000כלבו קניות                                        2023121720231217799            0              1ILS+00000000000308+00000000000000+00000000000                           00010101                                  
B10000000028602196271703120000200000100000000               138300              000                    000כלבו קניות                                        20231219202312192005                          1ILS+00000000014017+00000000000000+00000000000                           00010101                                  
B10000000028702196271703120000200000200000000               138300              000                    000כלבו קניות                                        2023121920231219799            0              1ILS+00000000002383+00000000000000+00000000000                           00010101                                  
B10000000028802196271703120000190000100000000               1138333             000                    000כלבו קניות                                        20231219202312192005                          1ILS+00000000000991+00000000000000+00000000000                           00010101                                  
B10000000028902196271703120000190000200000000               1138333             000                    000כלבו קניות                                        2023121920231219799            0              1ILS+00000000000169+00000000000000+00000000000                           00010101                                  
B10000000029002196271703120000180000100000000               138454              000                    000כלבו קניות                                        20231220202312202005                          1ILS+00000000010513+00000000000000+00000000000                           00010101                                  
B10000000029102196271703120000180000200000000               138454              000                    000כלבו קניות                                        2023122020231220799            0              1ILS+00000000001787+00000000000000+00000000000                           00010101                                  
B10000000029202196271703120000170000100000000               138549              000                    000כלבו קניות                                        20231220202312202005                          1ILS+00000000016410+00000000000000+00000000000                           00010101                                  
B10000000029302196271703120000170000200000000               138549              000                    000כלבו קניות                                        2023122020231220799            0              1ILS+00000000002790+00000000000000+00000000000                           00010101                                  
B10000000029402196271703120000160000100000000               138776              000                    000כלבו קניות                                        20231224202312242005                          1ILS+00000000004786+00000000000000+00000000000                           00010101                                  
B10000000029502196271703120000160000200000000               138776              000                    000כלבו קניות                                        2023122420231224799            0              1ILS+00000000000814+00000000000000+00000000000                           00010101                                  
B10000000029602196271703120000150000100000000               139145              000                    000כלבו קניות                                        20231227202312272005                          1ILS+00000000000983+00000000000000+00000000000                           00010101                                  
B10000000029702196271703120000150000200000000               139145              000                    000כלבו קניות                                        2023122720231227799            0              1ILS+00000000000167+00000000000000+00000000000                           00010101                                  
B10000000029802196271703120000140000100000000               139266              000                    000כלבו קניות                                        20231228202312282005                          1ILS+00000000008205+00000000000000+00000000000                           00010101                                  
B10000000029902196271703120000140000200000000               139266              000                    000כלבו קניות                                        2023122820231228799            0              1ILS+00000000001395+00000000000000+00000000000                           00010101                                  
B10000000030002196271703120000130000100000000               40006024543         000                    000סאלח דבאח ובניו בע"מ קניות                        20231229202312292005                          1ILS+00000000056829+00000000000000+00000000000                           00010101                                  
B10000000030102196271703120000130000200000000               40006024543         000                    000סאלח דבאח ובניו בע"מ קניות                        2023122920231229799            0              1ILS+00000000009661+00000000000000+00000000000                           00010101                                  
B10000000030202196271703120000120000100000000               40006024544         000                    000סאלח דבאח ובניו בע"מ קניות                        20231229202312292005                          1ILS+00000000020402+00000000000000+00000000000                           00010101                                  
B10000000030302196271703120000120000200000000               40006024544         000                    000סאלח דבאח ובניו בע"מ קניות                        2023122920231229799            0              1ILS+00000000003468+00000000000000+00000000000                           00010101                                  
B10000000030402196271703120000110000100000000               2928                000                    000רשת חנויות רמי לוי שיווק השיקמה 2006 בע"מ קניות   20231229202312292005                          1ILS+00000000085068+00000000000000+00000000000                           00010101                                  
B10000000030502196271703120000110000200000000               2928                000                    000רשת חנויות רמי לוי שיווק השיקמה 2006 בע"מ קניות   2023122920231229799            0              1ILS+00000000014462+00000000000000+00000000000                           00010101                                  
B10000000030602196271703110000010000100000000                                   000                    000הנהלת חשבונות                                     20230910202309102032                          1ILS+00000000090000+00000000000000+00000000000                           00010101                                  
B10000000030702196271703110000010000200000000                                   000                    000הנהלת חשבונות                                     2023091020230910799            0              1ILS+00000000015300+00000000000000+00000000000                           00010101                                  
B10000000030802196271703040000010000100000000               14104               000                    000יוסף חי עדי הנהלת חשבונות                         20230418202304182032                          1ILS+00000000060000+00000000000000+00000000000                           00010101                                  
B10000000030902196271703040000010000200000000               14104               000                    000יוסף חי עדי הנהלת חשבונות                         2023041820230418799            0              1ILS+00000000010200+00000000000000+00000000000                           00010101                                  
B10000000031002196271703010000010000100000000               3953                000                    000יוסף חי עדי הנהלת חשבונות                         20230123202301232032                          1ILS+00000000150000+00000000000000+00000000000                           00010101                                  
B10000000031102196271703010000010000200000000               3953                000                    000יוסף חי עדי הנהלת חשבונות                         2023012320230123799            0              1ILS+00000000025500+00000000000000+00000000000                           00010101                                  
B10000000031202196271703060000010000100000000                                   000                    000הנהלת חשבונות                                     20230601202306012032                          1ILS+00000000060000+00000000000000+00000000000                           00010101                                  
B10000000031302196271703060000010000200000000                                   000                    000הנהלת חשבונות                                     2023060120230601799            0              1ILS+00000000010200+00000000000000+00000000000                           00010101                                  
