undefinedA100000000001067895086655295116235832&OF1.31&                                                  
B1100000000020678950862029           קניות                                             1              עלות המכר                                                                                                                                                                      +00000000000000+00000000000000+000000000000000000000000000       +00000000000000ILS                
B110000000003067895086799            מעמ תשומות                                        0                                                                                                                                                                                             +00000000000000+00000000000000+000000000000000000000000000       +00000000000000ILS                
B1100000000040678950862023           עבודות חוץ                                        2              הוצאות תפעול                                                                                                                                                                   +00000000000000+00000000000000+000000000000000000000000000       +00000000000000ILS                
B1100000000050678950862026           שכר עבודה                                         2              הוצאות תפעול                                                                                                                                                                   +00000000000000+00000000000000+000000000000000000000000000       +00000000000000ILS                
B1100000000060678950862004           אחזקה                                             4              הוצאות הנהלה וכלליות                                                                                                                                                           +00000000000000+00000000000000+000000000000000000000000000       +00000000000000ILS                
B1100000000070678950862009           דלק                                               4              הוצאות הנהלה וכלליות                                                                                                                                                           +00000000000000+00000000000000+000000000000000000000000000       +00000000000000ILS                
B1100000000080678950862001           דמי שכירות                                        4              הוצאות הנהלה וכלליות                                                                                                                                                           +00000000000000+00000000000000+000000000000000000000000000       +00000000000000ILS                
B1100000000090678950862002           הוצאות רכב                                        4              הוצאות הנהלה וכלליות                                                                                                                                                           +00000000000000+00000000000000+000000000000000000000000000       +00000000000000ILS                
B1100000000100678950862021           חשמל                                              4              הוצאות הנהלה וכלליות                                                                                                                                                           +00000000000000+00000000000000+000000000000000000000000000       +00000000000000ILS                
B1100000000110678950862020           ארנונה                                            4              הוצאות הנהלה וכלליות                                                                                                                                                           +00000000000000+00000000000000+000000000000000000000000000       +00000000000000ILS                
B1100000000120678950862008           משרדיות                                           4              הוצאות הנהלה וכלליות                                                                                                                                                           +00000000000000+00000000000000+000000000000000000000000000       +00000000000000ILS                
B1100000000130678950862032           הנהלת חשבונות                                     4              הוצאות הנהלה וכלליות                                                                                                                                                           +00000000000000+00000000000000+000000000000000000000000000       +00000000000000ILS                
B110000000014067895086C134886        לקוחות שונים                                      1000           לקוחות                                                                                                                                                          0              +00000000000000+00000000000000+000000000000001000000000000       +00000000000000ILS                
B1100000000150678950862016           מכירות                                            6              הכנסות                                                                                                                                                                         +00000000000000+00000000000000+000000000000000000000000000       +00000000000000ILS                
B110000000016067895086007            מעמ עסקאות                                        0                                                                                                                                                                                             +00000000000000+00000000000000+000000000000000000000000000       +00000000000000ILS                
B10000000001706789508604010000010000100000000               236008260           000                    000להבות ייצור ומיגון (1995) בע"מ קניות              20231231202312312029                          1ILS+00000000105128+00000000000000+00000000000                           00010101                                  
B10000000001806789508604010000010000200000000               236008260           000                    000להבות ייצור ומיגון (1995) בע"מ קניות              2023123120231231799            0              1ILS+00000000017872+00000000000000+00000000000                           00010101                                  
B10000000001906789508604010000140000100000000               19144               000                    000זיו מחסני חשמל בע"מ קניות                         20240131202401312029                          1ILS+00000000012735+00000000000000+00000000000                           00010101                                  
B10000000002006789508604010000140000200000000               19144               000                    000זיו מחסני חשמל בע"מ קניות                         2024013120240131799            0              1ILS+00000000002165+00000000000000+00000000000                           00010101                                  
B10000000002106789508604010000150000100000000               80116               000                    000ספקים שונים קניות                                 20240131202401312029                          1ILS+00000000145641+00000000000000+00000000000                           00010101                                  
B10000000002206789508604010000150000200000000               80116               000                    000ספקים שונים קניות                                 2024013120240131799            0              1ILS+00000000024759+00000000000000+00000000000                           00010101                                  
B10000000002306789508604010000110000100000000               29452               000                    000להבות כרמיאל בע"מ קניות                           20240123202401232029                          1ILS+00000000020000+00000000000000+00000000000                           00010101                                  
B10000000002406789508604010000110000200000000               29452               000                    000להבות כרמיאל בע"מ קניות                           2024012320240123799            0              1ILS+00000000003400+00000000000000+00000000000                           00010101                                  
B10000000002506789508604010000100000100000000               47405               000                    000סאין מערכות ושירותים בע"מ קניות                   20240118202401182029                          1ILS+00000000025000+00000000000000+00000000000                           00010101                                  
B10000000002606789508604010000100000200000000               47405               000                    000סאין מערכות ושירותים בע"מ קניות                   2024011820240118799            0              1ILS+00000000004250+00000000000000+00000000000                           00010101                                  
B10000000002706789508604010000090000100000000               29400               000                    000קניות                                             20240117202401172029                          1ILS+00000000144786+00000000000000+00000000000                           00010101                                  
B10000000002806789508604010000090000200000000               29400               000                    000קניות                                             2024011720240117799            0              1ILS+00000000024614+00000000000000+00000000000                           00010101                                  
B10000000002906789508604010000080000100000000               29389               000                    000להבות כרמיאל בע"מ קניות                           20240116202401162029                          1ILS+00000000028034+00000000000000+00000000000                           00010101                                  
B10000000003006789508604010000080000200000000               29389               000                    000להבות כרמיאל בע"מ קניות                           2024011620240116799            0              1ILS+00000000004766+00000000000000+00000000000                           00010101                                  
B10000000003106789508604010000060000100000000               47315               000                    000סאין מערכות ושירותים בע"מ קניות                   20240109202401092029                          1ILS+00000000025000+00000000000000+00000000000                           00010101                                  
B10000000003206789508604010000060000200000000               47315               000                    000סאין מערכות ושירותים בע"מ קניות                   2024010920240109799            0              1ILS+00000000004250+00000000000000+00000000000                           00010101                                  
B10000000003306789508604010000050000100000000               47313               000                    000סאין מערכות ושירותים בע"מ קניות                   20240108202401082029                          1ILS+00000000045000+00000000000000+00000000000                           00010101                                  
B10000000003406789508604010000050000200000000               47313               000                    000סאין מערכות ושירותים בע"מ קניות                   2024010820240108799            0              1ILS+00000000007650+00000000000000+00000000000                           00010101                                  
B10000000003506789508604010000040000100000000               29305               000                    000להבות כרמיאל בע"מ קניות                           20240107202401072029                          1ILS+00000000045043+00000000000000+00000000000                           00010101                                  
B10000000003606789508604010000040000200000000               29305               000                    000להבות כרמיאל בע"מ קניות                           2024010720240107799            0              1ILS+00000000007657+00000000000000+00000000000                           00010101                                  
B10000000003706789508604010000020000100000000               105681              000                    000פלאנט אינטראקטיב דיגיטל מרקטינג בע"מ קניות        20240103202401032029                          1ILS+00000000145983+00000000000000+00000000000                           00010101                                  
B10000000003806789508604010000020000200000000               105681              000                    000פלאנט אינטראקטיב דיגיטל מרקטינג בע"מ קניות        2024010320240103799            0              1ILS+00000000024817+00000000000000+00000000000                           00010101                                  
B10000000003906789508604020000100000100000000               246001247           000                    000להבות ייצור ומיגון (1995) בע"מ קניות              20240229202402292029                          1ILS+00000000024017+00000000000000+00000000000                           00010101                                  
B10000000004006789508604020000100000200000000               246001247           000                    000להבות ייצור ומיגון (1995) בע"מ קניות              2024022920240229799            0              1ILS+00000000004083+00000000000000+00000000000                           00010101                                  
B10000000004106789508604020000090000100000000               73894               000                    000קניות                                             20240219202402192029                          1ILS+00000000048974+00000000000000+00000000000                           00010101                                  
B10000000004206789508604020000090000200000000               73894               000                    000קניות                                             2024021920240219799            0              1ILS+00000000008326+00000000000000+00000000000                           00010101                                  
B10000000004306789508604020000080000100000000               246001211           000                    000להבות ייצור ומיגון (1995) בע"מ קניות              20240229202402292029                          1ILS+00000000261026+00000000000000+00000000000                           00010101                                  
B10000000004406789508604020000080000200000000               246001211           000                    000להבות ייצור ומיגון (1995) בע"מ קניות              2024022920240229799            0              1ILS+00000000044374+00000000000000+00000000000                           00010101                                  
B10000000004506789508604020000070000100000000               240252536           000                    000טלפייר  בע"מ קניות                                20240228202402282029                          1ILS+00000000777009+00000000000000+00000000000                           00010101                                  
B10000000004606789508604020000070000200000000               240252536           000                    000טלפייר  בע"מ קניות                                2024022820240228799            0              1ILS+00000000132091+00000000000000+00000000000                           00010101                                  
B10000000004706789508604020000060000100000000               29700               000                    000להבות כרמיאל בע"מ קניות                           20240221202402212029                          1ILS+00000000087009+00000000000000+00000000000                           00010101                                  
B10000000004806789508604020000060000200000000               29700               000                    000להבות כרמיאל בע"מ קניות                           2024022120240221799            0              1ILS+00000000014791+00000000000000+00000000000                           00010101                                  
B10000000004906789508604020000050000100000000               29580               000                    000להבות כרמיאל בע"מ קניות                           20240207202402072029                          1ILS+00000000080000+00000000000000+00000000000                           00010101                                  
B10000000005006789508604020000050000200000000               29580               000                    000להבות כרמיאל בע"מ קניות                           2024020720240207799            0              1ILS+00000000013600+00000000000000+00000000000                           00010101                                  
B10000000005106789508604020000020000100000000               47574               000                    000סאין מערכות ושירותים בע"מ קניות                   20240204202402042029                          1ILS+00000000075000+00000000000000+00000000000                           00010101                                  
B10000000005206789508604020000020000200000000               47574               000                    000סאין מערכות ושירותים בע"מ קניות                   2024020420240204799            0              1ILS+00000000012750+00000000000000+00000000000                           00010101                                  
B10000000005306789508604020000010000100000000               47557               000                    000סאין מערכות ושירותים בע"מ קניות                   20240201202402012029                          1ILS+00000000025000+00000000000000+00000000000                           00010101                                  
B10000000005406789508604020000010000200000000               47557               000                    000סאין מערכות ושירותים בע"מ קניות                   2024020120240201799            0              1ILS+00000000004250+00000000000000+00000000000                           00010101                                  
B10000000005506789508604030000050000100000000               687887              000                    000תעשיות נעלים נגה - עינת בע"מ קניות                20240303202403032029                          1ILS+00000000038632+00000000000000+00000000000                           00010101                                  
B10000000005606789508604030000050000200000000               687887              000                    000תעשיות נעלים נגה - עינת בע"מ קניות                2024030320240303799            0              1ILS+00000000006568+00000000000000+00000000000                           00010101                                  
B10000000005706789508604030000040000100000000               29830               000                    000להבות כרמיאל בע"מ קניות                           20240311202403112029                          1ILS+00000001102991+00000000000000+00000000000                           00010101                                  
B10000000005806789508604030000040000200000000               29830               000                    000להבות כרמיאל בע"מ קניות                           2024031120240311799            0              1ILS+00000000187509+00000000000000+00000000000                           00010101                                  
B10000000005906789508604030000020000100000000               47846               000                    000סאין מערכות ושירותים בע"מ קניות                   20240306202403062029                          1ILS+00000000025000+00000000000000+00000000000                           00010101                                  
B10000000006006789508604030000020000200000000               47846               000                    000סאין מערכות ושירותים בע"מ קניות                   2024030620240306799            0              1ILS+00000000004250+00000000000000+00000000000                           00010101                                  
B10000000006106789508604030000010000100000000               47828               000                    000סאין מערכות ושירותים בע"מ קניות                   20240304202403042029                          1ILS+00000000025000+00000000000000+00000000000                           00010101                                  
B10000000006206789508604030000010000200000000               47828               000                    000סאין מערכות ושירותים בע"מ קניות                   2024030420240304799            0              1ILS+00000000004250+00000000000000+00000000000                           00010101                                  
B10000000006306789508604040000050000100000000               9086342             000                    000מתי מכון התקנים ישראלי קניות                      20240425202404252029                          1ILS+00000001127812+00000000000000+00000000000                           00010101                                  
B10000000006406789508604040000050000200000000               9086342             000                    000מתי מכון התקנים ישראלי קניות                      2024042520240425799            0              1ILS+00000000191728+00000000000000+00000000000                           00010101                                  
B10000000006506789508604040000040000100000000               6                   000                    000קניות                                             20240416202404162029                          1ILS+00000000280000+00000000000000+00000000000                           00010101                                  
B10000000006606789508604040000040000200000000               6                   000                    000קניות                                             2024041620240416799            0              1ILS+00000000047600+00000000000000+00000000000                           00010101                                  
B10000000006706789508604040000010000100000000               599                 000                    000אביר אש בע"מ קניות                                20240404202404042029                          1ILS+00000000340000+00000000000000+00000000000                           00010101                                  
B10000000006806789508604040000010000200000000               599                 000                    000אביר אש בע"מ קניות                                2024040420240404799            0              1ILS+00000000057800+00000000000000+00000000000                           00010101                                  
B10000000006906789508604050000180000100000000               246003056           000                    000להבות ייצור ומיגון (1995) בע"מ קניות              20240531202405312029                          1ILS+00000000368974+00000000000000+00000000000                           00010101                                  
B10000000007006789508604050000180000200000000               246003056           000                    000להבות ייצור ומיגון (1995) בע"מ קניות              2024053120240531799            0              1ILS+00000000062726+00000000000000+00000000000                           00010101                                  
B10000000007106789508604050000170000100000000               246003055           000                    000להבות ייצור ומיגון (1995) בע"מ קניות              20240531202405312029                          1ILS+00000000059487+00000000000000+00000000000                           00010101                                  
B10000000007206789508604050000170000200000000               246003055           000                    000להבות ייצור ומיגון (1995) בע"מ קניות              2024053120240531799            0              1ILS+00000000010113+00000000000000+00000000000                           00010101                                  
B10000000007306789508604050000160000100000000               246003054           000                    000להבות ייצור ומיגון (1995) בע"מ קניות              20240531202405312029                          1ILS+00000000064530+00000000000000+00000000000                           00010101                                  
B10000000007406789508604050000160000200000000               246003054           000                    000להבות ייצור ומיגון (1995) בע"מ קניות              2024053120240531799            0              1ILS+00000000010970+00000000000000+00000000000                           00010101                                  
B10000000007506789508604050000150000100000000               246003053           000                    000להבות ייצור ומיגון (1995) בע"מ קניות              20240531202405312029                          1ILS+00000000518462+00000000000000+00000000000                           00010101                                  
B10000000007606789508604050000150000200000000               246003053           000                    000להבות ייצור ומיגון (1995) בע"מ קניות              2024053120240531799            0              1ILS+00000000088138+00000000000000+00000000000                           00010101                                  
B10000000007706789508604050000140000100000000               73486               000                    000אלמוג קניות                                       20240527202405272029                          1ILS+00000000330085+00000000000000+00000000000                           00010101                                  
B10000000007806789508604050000140000200000000               73486               000                    000אלמוג קניות                                       2024052720240527799            0              1ILS+00000000056115+00000000000000+00000000000                           00010101                                  
B10000000007906789508604050000090000100000000               30346               000                    000להבות כרמיאל בע"מ קניות                           20240529202405292029                          1ILS+00000001198974+00000000000000+00000000000                           00010101                                  
B10000000008006789508604050000090000200000000               30346               000                    000להבות כרמיאל בע"מ קניות                           2024052920240529799            0              1ILS+00000000203826+00000000000000+00000000000                           00010101                                  
B10000000008106789508604050000060000100000000               2411029745          000                    000סמיקום לקסיס בע"מ קניות                           20240516202405162029                          1ILS+00000000051966+00000000000000+00000000000                           00010101                                  
B10000000008206789508604050000060000200000000               2411029745          000                    000סמיקום לקסיס בע"מ קניות                           2024051620240516799            0              1ILS+00000000008834+00000000000000+00000000000                           00010101                                  
B10000000008306789508604050000050000100000000               2411029766          000                    000סמיקום לקסיס בע"מ קניות                           20240516202405162029                          1ILS+00000000050000+00000000000000+00000000000                           00010101                                  
B10000000008406789508604050000050000200000000               2411029766          000                    000סמיקום לקסיס בע"מ קניות                           2024051620240516799            0              1ILS+00000000008500+00000000000000+00000000000                           00010101                                  
B10000000008506789508604050000040000100000000               48566               000                    000סאין מערכות ושירותים בע"מ קניות                   20240520202405202029                          1ILS+00000000040000+00000000000000+00000000000                           00010101                                  
B10000000008606789508604050000040000200000000               48566               000                    000סאין מערכות ושירותים בע"מ קניות                   2024052020240520799            0              1ILS+00000000006800+00000000000000+00000000000                           00010101                                  
B10000000008706789508604050000020000100000000               445                 000                    000פאיירלאב בע"מ קניות                               20240502202405022029                          1ILS+00000000044017+00000000000000+00000000000                           00010101                                  
B10000000008806789508604050000020000200000000               445                 000                    000פאיירלאב בע"מ קניות                               2024050220240502799            0              1ILS+00000000007483+00000000000000+00000000000                           00010101                                  
B10000000008906789508604050000010000100000000               241002422           000                    000רותם בטיחות בע"מ קניות                            20240528202405282029                          1ILS+00000000187521+00000000000000+00000000000                           00010101                                  
B10000000009006789508604050000010000200000000               241002422           000                    000רותם בטיחות בע"מ קניות                            2024052820240528799            0              1ILS+00000000031879+00000000000000+00000000000                           00010101                                  
B10000000009106789508604050000120000100000000               10                  000                    000עמוד האש עבודות חוץ                               20240516202405162023                          1ILS+00000000140000+00000000000000+00000000000                           00010101                                  
B10000000009206789508604050000120000200000000               10                  000                    000עמוד האש עבודות חוץ                               2024051620240516799            0              1ILS+00000000023800+00000000000000+00000000000                           00010101                                  
B10000000009306789508604050000110000100000000               11                  000                    000עמוד האש עבודות חוץ                               20240521202405212023                          1ILS+00000000320000+00000000000000+00000000000                           00010101                                  
B10000000009406789508604050000110000200000000               11                  000                    000עמוד האש עבודות חוץ                               2024052120240521799            0              1ILS+00000000054400+00000000000000+00000000000                           00010101                                  
B10000000009506789508604050000100000100000000               12                  000                    000עמוד האש עבודות חוץ                               20240523202405232023                          1ILS+00000000140000+00000000000000+00000000000                           00010101                                  
B10000000009606789508604050000100000200000000               12                  000                    000עמוד האש עבודות חוץ                               2024052320240523799            0              1ILS+00000000023800+00000000000000+00000000000                           00010101                                  
B10000000009706789508604040000110000100000000               שכר 3               000                    000שכר עבודה                                         20240301202403012026                          1ILS+00000003404100+00000000000000+00000000000                           00010101                                  
B10000000009806789508604040000120000100000000               שכר 4               000                    000שכר עבודה                                         20240401202404012026                          1ILS+00000003404100+00000000000000+00000000000                           00010101                                  
B10000000009906789508604010000180000100000000                                   000                    000שכר עבודה                                         20240125202401252026                          1ILS+00000000036600+00000000000000+00000000000                           00010101                                  
B10000000010006789508604020000150000100000000                                   000                    000שכר עבודה                                         20240225202402252026                          1ILS+00000003404100+00000000000000+00000000000                           00010101                                  
B10000000010106789508604030000070000100000000               5                   000                    000עמוד האש עבודות חוץ                               20240331202403312023                          1ILS+00000000220000+00000000000000+00000000000                           00010101                                  
B10000000010206789508604030000070000200000000               5                   000                    000עמוד האש עבודות חוץ                               2024033120240331799            0              1ILS+00000000037400+00000000000000+00000000000                           00010101                                  
B10000000010306789508604030000060000100000000               33                  000                    000עמוד האש עבודות חוץ                               20240303202403032023                          1ILS+00000000130000+00000000000000+00000000000                           00010101                                  
B10000000010406789508604030000060000200000000               33                  000                    000עמוד האש עבודות חוץ                               2024030320240303799            0              1ILS+00000000022100+00000000000000+00000000000                           00010101                                  
B10000000010506789508604020000130000100000000               1                   000                    000עמוד האש עבודות חוץ                               20240229202402292023                          1ILS+00000000330000+00000000000000+00000000000                           00010101                                  
B10000000010606789508604020000130000200000000               1                   000                    000עמוד האש עבודות חוץ                               2024022920240229799            0              1ILS+00000000056100+00000000000000+00000000000                           00010101                                  
B10000000010706789508604020000120000100000000               244000068           000                    000א.ש מוצפי השקעות תשתיות ואחזקה  בע"מ אחזקה        20240229202402292004                          1ILS+00000000472479+00000000000000+00000000000                           00010101                                  
B10000000010806789508604020000120000200000000               244000068           000                    000א.ש מוצפי השקעות תשתיות ואחזקה  בע"מ אחזקה        2024022920240229799            0              1ILS+00000000080321+00000000000000+00000000000                           00010101                                  
B10000000010906789508604020000110000100000000               4011491             000                    000דלק                                               20240229202402292009                          1ILS+00000000167197+00000000000000+00000000000                           00010101                                  
B10000000011006789508604020000110000200000000               4011491             000                    000דלק                                               2024022920240229799            0              1ILS+00000000017934+00000000000000+00000000000                           00010101                                  
B10000000011106789508604010000030000100000000               3950                000                    000ליאז בניה ופרוייקטים בע"מ דמי שכירות              20240107202401072001                          1ILS+00000000270000+00000000000000+00000000000                           00010101                                  
B10000000011206789508604010000030000200000000               3950                000                    000ליאז בניה ופרוייקטים בע"מ דמי שכירות              2024010720240107799            0              1ILS+00000000045900+00000000000000+00000000000                           00010101                                  
B10000000011306789508604010000070000100000000               7015648             000                    000נג''אר סאמי ובניו בע"מ הוצאות רכב                 20240109202401092002                          1ILS+00000000068728+00000000000000+00000000000                           00010101                                  
B10000000011406789508604010000070000200000000               7015648             000                    000נג''אר סאמי ובניו בע"מ הוצאות רכב                 2024010920240109799            0              1ILS+00000000007372+00000000000000+00000000000                           00010101                                  
B10000000011506789508604010000120000100000000               2042397             000                    000ספקים שונים הוצאות רכב                            20240131202401312002                          1ILS+00000000063219+00000000000000+00000000000                           00010101                                  
B10000000011606789508604010000120000200000000               2042397             000                    000ספקים שונים הוצאות רכב                            2024013120240131799            0              1ILS+00000000006781+00000000000000+00000000000                           00010101                                  
B10000000011706789508604010000130000100000000               3993730             000                    000ספקים שונים דלק                                   20240131202401312009                          1ILS+00000000136704+00000000000000+00000000000                           00010101                                  
B10000000011806789508604010000130000200000000               3993730             000                    000ספקים שונים דלק                                   2024013120240131799            0              1ILS+00000000014663+00000000000000+00000000000                           00010101                                  
B10000000011906789508604030000030000100000000               3989                000                    000ליאז בניה ופרוייקטים בע"מ דמי שכירות              20240306202403062001                          1ILS+00000000270000+00000000000000+00000000000                           00010101                                  
B10000000012006789508604030000030000200000000               3989                000                    000ליאז בניה ופרוייקטים בע"מ דמי שכירות              2024030620240306799            0              1ILS+00000000045900+00000000000000+00000000000                           00010101                                  
B10000000012106789508604020000040000100000000               3965                000                    000ליאז בניה ופרוייקטים בע"מ חשמל                    20240211202402112021                          1ILS+00000000014872+00000000000000+00000000000                           00010101                                  
B10000000012206789508604020000040000200000000               3965                000                    000ליאז בניה ופרוייקטים בע"מ חשמל                    2024021120240211799            0              1ILS+00000000002528+00000000000000+00000000000                           00010101                                  
B10000000012306789508604020000030000100000000               3962                000                    000ליאז בניה ופרוייקטים בע"מ דמי שכירות              20240205202402052001                          1ILS+00000000270000+00000000000000+00000000000                           00010101                                  
B10000000012406789508604020000030000200000000               3962                000                    000ליאז בניה ופרוייקטים בע"מ דמי שכירות              2024020520240205799            0              1ILS+00000000045900+00000000000000+00000000000                           00010101                                  
B10000000012506789508604050000200000100000000               67895086            000                    000ארנונה                                            20240509202405092020                          1ILS+00000000266390+00000000000000+00000000000                           00010101                                  
B10000000012606789508604050000190000100000000               67895086            000                    000ארנונה                                            20240509202405092020                          1ILS+00000000025410+00000000000000+00000000000                           00010101                                  
B10000000012706789508604050000130000100000000               4066304             000                    000דלק                                               20240531202405312009                          1ILS+00000000179097+00000000000000+00000000000                           00010101                                  
B10000000012806789508604050000130000200000000               4066304             000                    000דלק                                               2024053120240531799            0              1ILS+00000000019210+00000000000000+00000000000                           00010101                                  
B10000000012906789508604050000080000100000000               35110               000                    000צמיגי כרסנטי הוצאות רכב                           20240523202405232002                          1ILS+00000000090313+00000000000000+00000000000                           00010101                                  
B10000000013006789508604050000080000200000000               35110               000                    000צמיגי כרסנטי הוצאות רכב                           2024052320240523799            0              1ILS+00000000009687+00000000000000+00000000000                           00010101                                  
B10000000013106789508604050000070000100000000               75271               000                    000תדמית ארוח 1993 בע"מ משרדיות                      20240521202405212008                          1ILS+00000000019487+00000000000000+00000000000                           00010101                                  
B10000000013206789508604050000070000200000000               75271               000                    000תדמית ארוח 1993 בע"מ משרדיות                      2024052120240521799            0              1ILS+00000000003313+00000000000000+00000000000                           00010101                                  
B10000000013306789508604050000030000100000000               4019                000                    000ליאז בניה ופרוייקטים בע"מ דמי שכירות              20240505202405052001                          1ILS+00000000270000+00000000000000+00000000000                           00010101                                  
B10000000013406789508604050000030000200000000               4019                000                    000ליאז בניה ופרוייקטים בע"מ דמי שכירות              2024050520240505799            0              1ILS+00000000045900+00000000000000+00000000000                           00010101                                  
B10000000013506789508604010000170000100000000               802                 000                    000ליאז בניה ופרוייקטים בע"מ אחזקה                   20240128202401282004                          1ILS+00000000096752+00000000000000+00000000000                           00010101                                  
B10000000013606789508604010000170000200000000               802                 000                    000ליאז בניה ופרוייקטים בע"מ אחזקה                   2024012820240128799            0              1ILS+00000000016448+00000000000000+00000000000                           00010101                                  
B10000000013706789508604040000100000100000000               58850               000                    000א.ג. מספק הגליל טיאר בע"מ אחזקה                   20240430202404302004                          1ILS+00000000035000+00000000000000+00000000000                           00010101                                  
B10000000013806789508604040000100000200000000               58850               000                    000א.ג. מספק הגליל טיאר בע"מ אחזקה                   2024043020240430799            0              1ILS+00000000005950+00000000000000+00000000000                           00010101                                  
B10000000013906789508604040000030000100000000               4009                000                    000ליאז בניה ופרוייקטים בע"מ דמי שכירות              20240408202404082001                          1ILS+00000000270000+00000000000000+00000000000                           00010101                                  
B10000000014006789508604040000030000200000000               4009                000                    000ליאז בניה ופרוייקטים בע"מ דמי שכירות              2024040820240408799            0              1ILS+00000000045900+00000000000000+00000000000                           00010101                                  
B10000000014106789508604040000020000100000000               3997                000                    000ליאז בניה ופרוייקטים בע"מ דמי שכירות              20240402202404022001                          1ILS+00000000035299+00000000000000+00000000000                           00010101                                  
B10000000014206789508604040000020000200000000               3997                000                    000ליאז בניה ופרוייקטים בע"מ דמי שכירות              2024040220240402799            0              1ILS+00000000006001+00000000000000+00000000000                           00010101                                  
B10000000014306789508604030000080000100000000               4029574             000                    000דלק                                               20240331202403312009                          1ILS+00000000146254+00000000000000+00000000000                           00010101                                  
B10000000014406789508604030000080000200000000               4029574             000                    000דלק                                               2024033120240331799            0              1ILS+00000000015687+00000000000000+00000000000                           00010101                                  
B10000000014506789508604030000100000100000000               14706               000                    000יוסף חי עדי הנהלת חשבונות                         20240301202403012032                          1ILS+00000000132051+00000000000000+00000000000                           00010101                                  
B10000000014606789508604030000100000200000000               14706               000                    000יוסף חי עדי הנהלת חשבונות                         2024030120240301799            0              1ILS+00000000022449+00000000000000+00000000000                           00010101                                  
B10000000014706789508604040000080000100000000               4049458             000                    000דלק                                               20240430202404302009                          1ILS+00000000006059+00000000000000+00000000000                           00010101                                  
B10000000014806789508604040000080000200000000               4049458             000                    000דלק                                               2024043020240430799            0              1ILS+00000000000650+00000000000000+00000000000                           00010101                                  
B10000000014906789508604040000070000100000000               4047775             000                    000דלק                                               20240430202404302009                          1ILS+00000000117058+00000000000000+00000000000                           00010101                                  
B10000000015006789508604040000070000200000000               4047775             000                    000דלק                                               2024043020240430799            0              1ILS+00000000012556+00000000000000+00000000000                           00010101                                  
B10000000015106789508604040000060000100000000               818                 000                    000ליאז בניה ופרוייקטים בע"מ דמי שכירות              20240414202404142001                          1ILS+00000000064872+00000000000000+00000000000                           00010101                                  
B10000000015206789508604040000060000200000000               818                 000                    000ליאז בניה ופרוייקטים בע"מ דמי שכירות              2024041420240414799            0              1ILS+00000000011028+00000000000000+00000000000                           00010101                                  
B10000000015406789508604030000090000200000000               1507                000                    000מכירות                                            20240331202403312016                          2ILS+00000002167094+00000000000000+00000000000                           00010101                                  
B10000000015506789508604030000090000300000000               1507                000                    000מכירות                                            2024033120240331007            0              2ILS+00000000368406+00000000000000+00000000000                           00010101                                  
B10000000015306789508604030000090000100000000               1507                000                    000מכירות                                            2024033120240331C134886                       1ILS+00000002535500+00000000000000+00000000000                           00010101                                  
B10000000015706789508604040000090000200000000               2296                000                    000בטיחות הגליל מכירות                               20240430202404302016                          2ILS+00000000898462+00000000000000+00000000000                           00010101                                  
B10000000015806789508604040000090000300000000               2296                000                    000בטיחות הגליל מכירות                               2024043020240430007            0              2ILS+00000000152738+00000000000000+00000000000                           00010101                                  
B10000000015606789508604040000090000100000000               2296                000                    000בטיחות הגליל מכירות                               2024043020240430C134886                       1ILS+00000001051200+00000000000000+00000000000                           00010101                                  
B10000000016006789508604020000140000200000000                                   000                    000מכירות                                            20240229202402292016                          2ILS+00000006395299+00000000000000+00000000000                           00010101                                  
B10000000016106789508604020000140000300000000                                   000                    000מכירות                                            2024022920240229007            0              2ILS+00000001087201+00000000000000+00000000000                           00010101                                  
B10000000015906789508604020000140000100000000                                   000                    000מכירות                                            2024022920240229C134886                       1ILS+00000007482500+00000000000000+00000000000                           00010101                                  
B10000000016306789508604010000160000200000000               0                   000                    000מכירות                                            20240131202401312016                          2ILS+00000000000001+00000000000000+00000000000                           00010101                                  
B10000000016206789508604010000160000100000000               0                   000                    000מכירות                                            2024013120240131C134886                       1ILS+00000000000001+00000000000000+00000000000                           00010101                                  
B10000000016506789508604050000210000200000000               6822                000                    000מכירות                                            20240531202405312016                          2ILS+00000004326410+00000000000000+00000000000                           00010101                                  
B10000000016606789508604050000210000300000000               6822                000                    000מכירות                                            2024053120240531007            0              2ILS+00000000735490+00000000000000+00000000000                           00010101                                  
B10000000016406789508604050000210000100000000               6822                000                    000מכירות                                            2024053120240531C134886                       1ILS+00000005061900+00000000000000+00000000000                           00010101                                  
Z900000000167067895086655295116235832&OF1.31&000000000000167                                                  
